HDR GMM 06/01/2023 OBJECTIVE                   
00000000010001111161162076213S45060120230000000
00000000050005151171172061713STC060120230000007
00000000020002626216211060548RTR060120230000000
00000000040004141121122054348RRH060120230000000
00000000020002121111116071713TC1060120230000006
00000000010001111141145080448RTE060120230000002
00000000020002121151154064413LCG060120230000000
00000000020002222132134063548RTR060120230000001
00000000020002121161161062348RTR060120230000001
00000000020002121151152064248RTR060120230000000
00000000030003333123121063012ET1060120230000004
00000000010001111111113075148YT1060120230000000
00000000040004242142144054948SAV060120230000000
00000000030003232132134054648RCH060120230000009
00000000030003131151153051848RRH060120230000000
00000000050005151171173066913SCH060120230000036
00000000030003131141143051713SCH060120230000001
00000000050005151131132050511EN2060120230000010
00000000030003131181184065948CG2060120230000000
00000000040004242132131050411EN2060120230000068
00000000030003131151154054513LXD060120230000000
00000000040004242122123050148ACG060120230000064
00000000020002121181184060012CT4060120230000001
00000000030003232132131056048ACG060120230000024
00000000050005353113111052712EST060120230000012
00000000030003131191191063048RTC060120230000005
00000000040004141121124053213STE060120230000001
00000000030003131151152056012ET1060120230000004
00000000010001111131135081113SDH060120230000000
00000000010001111141142080313SDH060120230000008
00000000010001212132135076448SAV060120230000000
00000000020002121171175062313TBZ060120230000002
00000000040004141141144050413ME2060120230000004
00000000050005151171173066913EQD060120230000041
00000000050005151181183063713TBZ060120230000003
00000000010001313123122080312EST060120230000016
00000000030003131151154055013CC2060120230000003
00000000050005151161162060213CXC060120230000000
00000000050005151151154064813STC060120230000011
00000000050005151191194062413TBZ060120230000001
00000000010001111161163088113TBZ060120230000010
00000000040004343123122056612CT5060120230000005
00000000050005151141141054713TT1060120230000018
00000000020002222112112067048YXT060120230000004
00000000020002222142141063948RTE060120230000000
00000000030003333113111053912XT5060120230000066
00000000030003131191193052213TC1060120230000000
00000000020002222122124062512XT5060120230000005
00000000040004343113112052112CT5060120230000002
00000000030003232112111052848RRH060120230000000
00000000020002121131132067113STC060120230000000
00000000020002121191194065213EQD060120230000005
00000000030003131131134057513CAC060120230000000
00000000030003131181181073613CAC060120230000000
00000000020002121161162062748ACG060120230000005
00000000030003131151154057013SDH060120230000000
00000000010001111121122081948RTC060120230000007
00000000040004141141141050413EXP060120230000005
00000000020002222132134064148RCH060120230000039
00000000010001111151152075313ST1060120230000027
00000000010001111161162076212CT5060120230000000
00000000050005252112112053512CT5060120230000002
00000000050005252152154061348YXT060120230000003
00000000030003131171171052948SAV060120230000000
00000000010001111141145077113SRH060120230000000
00000000010001111121123082013STR060120230000000
00000000050005151111112051013STR060120230000000
00000000050005151181183067913Y2X060120230000000
00000000040004141181181056513SRH060120230000000
00000000050005151191193067913STE060120230000000
00000000010001111131131086813EXP060120230000000
00000000020002222142142061211EGX060120230000010
00000000020002121111115063213T9B060120230000008
00000000050005151121125054713ST1060120230000000
00000000040004141171174050813S45060120230000000
00000000050005252122124055112CT5060120230000002
00000000010001111151154080313T9B060120230000000
00000000010001111151152075313CBC060120230000017
00000000020002626216213065048CG2060120230000000
00000000030003131151154056013BUV060120230000000
00000000020002121181183063348YXT060120230000001
00000000020002121171175061213ST1060120230000000
00000000020002222122122063348CG2060120230000002
00000000040004141171173050848RRH060120230000000
00000000040004242132133051248RTR060120230000004
00000000030003131151154054548YXT060120230000001
00000000050005252152154072448CXG060120230000000
00000000040004141121121052313LCG060120230000000
00000000010001111161163076212CT4060120230000000
00000000050005151121122054213LCG060120230000000
00000000030003131121121053912EST060120230000000
00000000020002121171175062348RCH060120230000002
00000000030003232142141052948ACG060120230000003
00000000010001111151151077013CAC060120230000003
00000000010001111131135086213BZR060120230000001
00000000020002121171173062613SCH060120230000009
00000000030003232142143055711EC1060120230000006
00000000050005151131132050513EXP060120230000005
00000000050005151111113059648CG2060120230000000
00000000040004141161164056611EN2060120230000006
00000000030003232122121052413T9B060120230000002
00000000010001111161164075811EGX060120230000000
00000000010001212122124080411EN2060120230000002
00000000050005252152153068748RCH060120230000018
00000000020002121141142063912XT5060120230000001
00000000050005252122122051312XT4060120230000007
00000000050005151181183061113TT1060120230000003
00000000010001111151154078913EXP060120230000000
00000000030003131161164053113SDH060120230000002
00000000050005252152151065848SAV060120230000000
00000000030003131141145056748RTE060120230000001
00000000010001111121124081913Y2X060120230000004
00000000030003131141145051913BZR060120230000000
00000000020002121161164062313LCG060120230000000
00000000050005151181183061113Y2X060120230000002
00000000050005252152153076411ECR060120230000000
00000000010001111141141085512XT4060120230000000
00000000050005151181182061148YT1060120230000000
00000000030003131181183055748RDH060120230000002
00000000020002121181181063548CXG060120230000000
00000000010001313113111081948RTE060120230000001
00000000040004141141141050412ET1060120230000004
00000000030003131141144051748CG2060120230000007
00000000030003131151152056013CC2060120230000041
00000000030003232142141064912LYQ060120230000003
00000000020002121181184060048RRH060120230000000
00000000020002121191193075148YT1060120230000002
00000000040004141181181053813SCH060120230000045
00000000050005151191192072548RCH060120230000015
00000000040004141121122053348ACG060120230000002
00000000020002121191193072213EXP060120230000000
00000000050005151161165061048RCH060120230000001
00000000050005151191192076413EQD060120230000009
00000000050005151191191067913BEV060120230000001
00000000040004242112112050048ACG060120230000001
00000000050005151151155058113LXD060120230000000
00000000050005151161166067513CC2060120230000005
00000000040004141171174059813BZR060120230000001
00000000010001111131132086248RCH060120230000002
00000000030003232122124050311EC1060120230000001
00000000020002121181181063513ME2060120230000025
00000000020002121141141069348RTR060120230000000
00000000020002121111114063213BEV060120230000001
00000000030003232122123065911EC1060120230000013
00000000040004141121122053348CG2060120230000000
00000000010001111131134086248RRH060120230000000
00000000030003131181184055713Y2X060120230000002
00000000050005252152153076412XT6060120230000000
00000000050005151181183061148YT1060120230000000
00000000040004141131134050113STC060120230000047
00000000030003131131132052413ME2060120230000015
00000000010001212132134075112LYQ060120230000000
00000000050005151171173066948RCH060120230000012
00000000040004141131133050113BUV060120230000010
00000000030003131131133052213S45060120230000001
00000000040004141171174055448YXT060120230000000
00000000050005252122121058348RCH060120230000000
00000000010001111141145077148SAV060120230000000
00000000020002121191193075913SDH060120230000000
00000000040004141151153055513ST1060120230000000
00000000030003232132134057011EC1060120230000010
00000000020002121141142067348SAV060120230000000
00000000030003131161162058413T9B060120230000004
00000000010001212132135075812CT4060120230000000
00000000030003131131131052548CG2060120230000001
00000000020002121191194072213BUV060120230000000
00000000050005151191191067913CXC060120230000001
00000000050005252122121054048SAV060120230000000
00000000030003232142142056412XT5060120230000003
00000000030003131151153051848RTR060120230000001
00000000010001212112111081011EC1060120230000002
00000000010001212132135075411ECR060120230000000
00000000020002121181183079011ECR060120230000001
00000000050005151151154058213LXD060120230000000
00000000050005151151151050913CAC060120230000002
00000000030003232142141052948RRH060120230000000
00000000020002121111113060913CXC060120230000000
00000000050005151171174070513TXK060120230000000
00000000050005151121124051513CXC060120230000000
00000000050005151171173061748RCH060120230000005
00000000010001111111114075148RDH060120230000000
00000000030003131151152056013ST1060120230000045
00000000020002121141142063913CXC060120230000000
00000000030003131181181064912XT6060120230000001
00000000010001111131134086613SRH060120230000001
00000000050005151161162060213LXD060120230000000
00000000040004141131132050113EQD060120230000131
00000000050005151121125054213LCD060120230000000
00000000050005151191191062448CG2060120230000000
00000000010001111131135080213ME2060120230000000
00000000050005151121125050948CG2060120230000000
00000000040004141171171050813T9B060120230000013
00000000040004141161161051248RRH060120230000000
00000000040004141121121052313CXC060120230000000
00000000020002222112112060348RCH060120230000004
00000000050005656216212066948SAV060120230000000
00000000020002222142142061212ET1060120230000001
00000000020002222112113060948CXG060120230000000
00000000030003131131131050312LYQ060120230000000
00000000050005151151154058113CC2060120230000002
00000000050005151121125055813CC2060120230000003
00000000030003131121121057113LCG060120230000004
00000000010001111161164079813T9B060120230000001
00000000010001111131131081348RRH060120230000000
00000000020002626216214064148RRH060120230000000
00000000020002121161162062313STC060120230000208
00000000010001111131135086613STR060120230000000
00000000040004242122121050111EGX060120230000068
00000000030003131141142051948SAV060120230000000
00000000040004141131133050113Y2X060120230000010
00000000010001111161162075413BUV060120230000000
00000000050005252122124051348SAV060120230000001
00000000030003131121124068613S45060120230000001
00000000050005151141142050513BUV060120230000000
00000000030003232122124053013ME2060120230000000
00000000050005151161162060213LCD060120230000000
00000000050005151171173061713TBZ060120230000006
00000000050005252122121054048CXG060120230000001
00000000050005151201203068713STE060120230000001
00000000050005151121124051548RTR060120230000000
00000000030003232112113053948RTR060120230000001
00000000050005151161166060213LCD060120230000000
00000000050005151181181068248YT1060120230000006
00000000020002121181184060013STC060120230000086
00000000050005151181182063748YXT060120230000000
00000000010001111151152075311ECR060120230000001
00000000020002222112111065248CXG060120230000000
00000000020002121111116071713EXP060120230000000
00000000040004141181181056513LXD060120230000000
00000000020002121191193072248RTE060120230000001
00000000030003131191193063013T9B060120230000004
00000000040004141151153056513STE060120230000003
00000000040004141111114050612XT4060120230000001
00000000030003232112115068612XT4060120230000003
00000000010001111161161075748ACG060120230000009
00000000030003131151154054513ME2060120230000000
00000000030003131171172056413CC2060120230000002
00000000050005151161166067548RTC060120230000003
00000000020002121161164062311ECR060120230000001
00000000030003131161162058413CBC060120230000000
00000000050005252152153076448ACG060120230000006
00000000020002121141141063213LXD060120230000000
00000000030003131181183055748RRH060120230000000
00000000050005252132131052713TT1060120230000002
00000000040004141161162051113STR060120230000000
00000000050005151201204067613TXK060120230000000
00000000030003131171172054113T9B060120230000043
00000000030003232142142056448YT1060120230000007
00000000010001111161163081013ST1060120230000004
00000000050005151121123054211EC1060120230000001
00000000020002121151154062813Y2X060120230000002
00000000030003131191191060613EQD060120230000005
00000000030003131121124068648RTC060120230000014
00000000020002121151151062213LCG060120230000001
00000000010001111161162075813EXP060120230000000
00000000030003131151154057013ST1060120230000000
00000000030003131151153051711EGX060120230000001
00000000010001111131135086248RDH060120230000000
00000000050005151161161064813STE060120230000000
00000000030003232132134052011EN2060120230000003
00000000020002222122125067848RTE060120230000007
00000000050005151151154064813STE060120230000000
00000000020002121181184063613SRH060120230000000
00000000050005151211215070213LCD060120230000000
00000000040004141111111050011EC1060120230000002
00000000050005151171172061748CXG060120230000000
00000000030003131181181064912XT4060120230000001
00000000010001111161164075813TC1060120230000000
00000000050005151171173061713TXK060120230000000
00000000030003131171172054113ST1060120230000019
00000000020002121111116060413STC060120230000056
00000000040004141121124054313SCH060120230000004
00000000020002121121124060348RTE060120230000000
00000000040004646216211051448SAV060120230000000
00000000050005151211212073713SCH060120230000006
00000000010001111111114075148RRH060120230000000
00000000010001111161163081013LCG060120230000000
00000000050005151191192062413TC1060120230000008
00000000050005151201203072448YXT060120230000004
00000000050005151181181068213CAC060120230000004
00000000030003131121123056113CC2060120230000051
00000000040004141121123053213STC060120230000173
00000000010001111161163081013T9B060120230000003
00000000050005151211213070212EST060120230000000
00000000010001111131135080213STC060120230000002
00000000050005151171172061713ME2060120230000000
00000000020002121131132065012XT6060120230000001
00000000010001212122121083948RRH060120230000000
00000000030003131141142052013SDH060120230000001
00000000040004141151153056613LCG060120230000000
00000000010001111111114077348TR2060120230000000
00000000040004141141141057713STC060120230000000
00000000050005252122123050548YXT060120230000065
00000000010001111131133086213TBZ060120230000007
00000000050005151191194061313T9B060120230000000
00000000040004141171173050813SRH060120230000005
00000000010001111161162075613TC1060120230000007
00000000050005252112113055848RTR060120230000000
00000000030003131161164053111EGX060120230000001
00000000050005151191191067948RTR060120230000001
00000000030003131161162054412EST060120230000000
00000000020002222112111072211EN2060120230000007
00000000020002222132132063612CT5060120230000005
00000000010001111161162075613BZR060120230000003
00000000040004141151153056548YT1060120230000000
00000000020002121161162062748YXT060120230000003
00000000050005151131134050513ME2060120230000001
00000000050005151211212061312CT5060120230000001
00000000050005151131131050513BEV060120230000003
00000000030003131171174065913TXK060120230000000
00000000020002121111116060413Y2X060120230000002
00000000040004242112112050048CG2060120230000000
00000000010001111161162076211EGX060120230000001
00000000050005151211214070213TC1060120230000002
00000000040004141151151057748YT1060120230000000
00000000030003131141141052048CG2060120230000001
00000000030003131161162054411EC1060120230000001
00000000050005151211212061313BZR060120230000030
00000000050005151151155064848RTE060120230000000
00000000040004141161163051113CAC060120230000016
00000000050005252112114054211EGX060120230000028
00000000010001111161163082013CBC060120230000000
00000000010001111131133086213TC1060120230000002
00000000050005151181182070213TXK060120230000000
00000000040004242122122053212CT5060120230000001
00000000010001111111112075913BEV060120230000001
00000000030003131181181064913BEV060120230000001
00000000050005252132132052712XT5060120230000002
00000000030003131171171052912EST060120230000000
00000000030003131161164055948RCH060120230000003
00000000020002222122125067811ECR060120230000000
00000000010001111111114077313LCD060120230000000
00000000010001111141145077113STR060120230000000
00000000010001212132132075311ECR060120230000008
00000000050005252152154067611EN2060120230000003
00000000030003131131133050313BZR060120230000002
00000000020002626216211075148RTR060120230000000
00000000030003232122121052413SDH060120230000001
00000000050005151131134051313EXP060120230000002
00000000030003131131131053013CXC060120230000000
00000000050005151191192062413Y2X060120230000002
00000000050005151181183061113TC1060120230000105
00000000020002626216211060548ACG060120230000001
00000000030003131131133052448YT1060120230000013
00000000050005151161161060248ACG060120230000003
00000000030003131181182065913SDH060120230000011
00000000020002121181181063548RDH060120230000004
00000000050005252142142060248SAV060120230000000
00000000050005656216211063748CXG060120230000000
00000000020002121181185063513CAC060120230000000
00000000050005252112115051048SAV060120230000000
00000000030003131171174052913EXP060120230000000
00000000050005151171171061713CC2060120230000031
00000000020002121161161062348ACG060120230000003
00000000050005151151154052748RRH060120230000001
00000000010001212132135075848RTR060120230000001
00000000030003232112111054813CC2060120230000003
00000000040004242132132056612CT4060120230000000
00000000020002121141141073413SCH060120230000015
00000000030003131191193052213TT1060120230000000
00000000030003131171172054113LCG060120230000000
00000000050005151141143054013CAC060120230000001
00000000020002121121124060313CAC060120230000000
00000000050005151151151050948SAV060120230000000
00000000050005151211214061313STE060120230000001
00000000050005252142141060248SAV060120230000010
00000000010001212132135075848RRH060120230000000
00000000050005151211213067648YT1060120230000000
00000000020002222122124062348RTR060120230000004
00000000030003636216212057348YXT060120230000000
00000000050005151131133051312XT6060120230000007
00000000020002121191191065213TBZ060120230000029
00000000020002222122124062348CXG060120230000000
00000000010001111131135081113STE060120230000001
00000000050005252112115053648RDH060120230000000
00000000030003232122123057548RTR060120230000001
00000000040004141131132050113SCH060120230000018
00000000020002323113113069312CT5060120230000007
00000000020002121161165066213CXC060120230000000
00000000050005151191191067948RRH060120230000000
00000000050005252132133068248YT1060120230000005
00000000040004141141142050413EQD060120230000178
00000000030003232112111052848RTR060120230000001
00000000010001111111114075113BZR060120230000001
00000000050005353113111051512ET1060120230000011
00000000010001111121122074348YXT060120230000010
00000000020002121171175062311EC1060120230000001
00000000040004141141144056613EQD060120230000008
00000000010001111111112076713STR060120230000000
00000000010001111161164075413Y2X060120230000000
00000000030003131191191060613SCH060120230000005
00000000040004141141144051213BUV060120230000000
00000000030003131171172054111ECR060120230000008
00000000030003131151154056013STE060120230000001
00000000020002222132131069248RDH060120230000000
00000000020002121161162062313ME2060120230000017
00000000050005151211212061313S45060120230000000
00000000010001111161162076248YT1060120230000002
00000000050005252132133068211EGX060120230000005
00000000050005151181182070248CG2060120230000000
00000000040004141141144051213TBZ060120230000004
00000000050005151141142056313S45060120230000000
00000000020002121141143069313BEV060120230000004
00000000010001111141144080313STE060120230000017
00000000020002323113113064012XT5060120230000005
00000000030003131141145054613CBC060120230000000
00000000040004141121122053313TBZ060120230000098
00000000020002121161165062348YT1060120230000002
00000000030003131191191060648CG2060120230000000
00000000050005151211214055348RCH060120230000000
00000000010001111151153075348RTR060120230000002
00000000050005252152154061348RRH060120230000000
00000000040004141121121052313ST1060120230000009
00000000010001212122121085511EN2060120230000001
00000000020002121191193072248YT1060120230000004
00000000020002121141141063213BZR060120230000000
00000000050005151181182063713Y2X060120230000000
00000000040004242122121050111EC1060120230000053
00000000010001111121123080112LYQ060120230000002
00000000010001212122124074412XT6060120230000001
00000000010001111111112076713SRH060120230000000
00000000050005353123122067912EST060120230000007
00000000050005151151154058148TR2060120230000001
00000000040004141141142050448SAV060120230000000
00000000050005151171173066948SAV060120230000001
00000000050005252132131058148RDH060120230000000
00000000020002222132132062648YT1060120230000000
00000000010001313123122082548SAV060120230000000
00000000030003131181183055713Y2X060120230000002
00000000040004141161161051113CBC060120230000002
00000000030003131121124068613BUV060120230000002
00000000050005151121122052713BUV060120230000000
00000000030003131181184055711EN2060120230000001
00000000020002121141141064048TR2060120230000004
00000000020002121181183076512XT5060120230000001
00000000030003232132133058448YT1060120230000000
00000000040004141111113050613TBZ060120230000054
00000000020002121161165062348CG2060120230000000
00000000020002121141144071848ACG060120230000006
00000000050005252122121051348CXG060120230000000
00000000050005151171171061713T9B060120230000059
00000000050005151181181063748RTE060120230000000
00000000020002121181184060013LCD060120230000000
00000000020002626216212060948RRH060120230000000
00000000020002121111114063213T9B060120230000010
00000000020002121161163062313BEV060120230000002
00000000050005151131135054013LCD060120230000000
00000000010001111161163082013T9B060120230000001
00000000020002323123121061812XT5060120230000070
00000000020002121181185060013TBZ060120230000007
00000000030003232132134051948TR2060120230000006
00000000020002222112111061648ACG060120230000030
00000000030003131111112053413EXP060120230000001
00000000050005151201201061312LYQ060120230000000
00000000010001111161161075713TBZ060120230000009
00000000030003131121124053011EGX060120230000001
00000000050005151161161064811EN2060120230000001
00000000050005151191191063112XT5060120230000001
00000000040004141111111050013S45060120230000001
00000000020002121181182064113BEV060120230000007
00000000030003131111113053411EC1060120230000001
00000000040004141151153057711EGX060120230000001
00000000010001111161164068713Y2X060120230000000
00000000030003232142142056411ECR060120230000003
00000000030003232112114050711EN2060120230000007
00000000020002121121125063113TBZ060120230000003
00000000010001111121124082013TC1060120230000004
00000000040004242132131050411EGX060120230000127
00000000020002626216213071848RDH060120230000000
00000000040004141121121052313T9B060120230000056
00000000040004141121124053313TXK060120230000000
00000000050005151211214055313STC060120230000010
00000000040004242122122053248RCH060120230000014
00000000050005252152154061348RTR060120230000000
00000000050005151211211061348ACG060120230000003
00000000010001313113113078948RRH060120230000000
00000000020002121171172069248TR2060120230000001
00000000020002222122121065012XT4060120230000004
00000000020002323123124063512LYQ060120230000034
00000000010001111151154080313CC2060120230000001
00000000010001111111112076713TT1060120230000003
00000000020002121131132065013STR060120230000000
00000000030003131151151057012LYQ060120230000002
00000000010001111121122074548RRH060120230000001
00000000050005151191193062413T9B060120230000002
00000000030003232122124050348RTC060120230000006
00000000040004141171173050848RDH060120230000000
00000000030003131191192069113ME2060120230000006
00000000020002121161165066248SAV060120230000000
00000000010001111161163075413CAC060120230000000
00000000010001111111112076713BZR060120230000001
00000000010001212132131075748CG2060120230000005
00000000020002121141144071048ACG060120230000004
00000000030003131121121057111EN2060120230000006
00000000010001111161162075413STE060120230000001
00000000050005151151153058813ME2060120230000001
00000000050005151151155058148RRH060120230000000
00000000050005151131131050513STC060120230000250
00000000030003131171171052913CXC060120230000000
00000000050005151131133051313ME2060120230000015
00000000010001111161161088113TXK060120230000000
00000000050005252132131058112XT5060120230000002
00000000040004242122122050148RTE060120230000010
00000000010001212132132078948TR2060120230000007
00000000010001111131135081113LCG060120230000000
00000000040004141151152055513EQD060120230000060
00000000040004141171171057413SDH060120230000003
00000000030003131191191069813BZR060120230000004
00000000010001111121122081913S45060120230000005
00000000020002121121125063813ST1060120230000002
00000000020002121151152064211EC1060120230000002
00000000030003232132132051848ACG060120230000009
00000000050005252142143066911ECR060120230000001
00000000030003131151151055013EXP060120230000000
00000000020002121151152071648RTC060120230000003
00000000030003131121123056112XT4060120230000005
00000000030003232142141054148YXT060120230000004
00000000030003131141145050713Y2X060120230000000
00000000030003232122122052248ACG060120230000001
00000000010001111151153075313ST1060120230000026
00000000040004141171174050848RTC060120230000002
00000000010001111111112075113BEV060120230000003
00000000050005151191191063148SAV060120230000000
00000000030003131111111052813LXD060120230000000
00000000040004242112114054311ECR060120230000001
00000000020002121161164062313CBC060120230000004
00000000030003131121124065648ACG060120230000004
00000000020002121181182064113BZR060120230000032
00000000040004242142143053812CT5060120230000002
00000000020002121111116071748RTE060120230000000
00000000010001111121124082048RTC060120230000011
00000000030003131181184055748YT1060120230000000
00000000020002121141143069313CXC060120230000000
00000000010001111121124081948YXT060120230000000
00000000020002121191192067812ET1060120230000002
00000000030003131141145051948RTC060120230000004
00000000020002121151154062813STC060120230000061
00000000040004141151153055512XT5060120230000000
00000000020002121181183079013BEV060120230000002
00000000020002121151153061213STR060120230000000
00000000050005151171172065813LCD060120230000000
00000000050005151211215073713T9B060120230000003
00000000050005151121125054713STE060120230000000
00000000010001111151152075313LCG060120230000000
00000000040004141171172055413SCH060120230000004
00000000040004343113113050148RCH060120230000001
00000000030003131141145051913STR060120230000000
00000000050005151141143054011ECR060120230000000
00000000040004141171173050813LCD060120230000000
00000000010001111111114077313SRH060120230000000
00000000050005151161165067513ME2060120230000006
00000000050005151201203068713ME2060120230000000
00000000010001111131131080713SRH060120230000001
00000000010001212112114081148RDH060120230000010
00000000040004141181181053848SAV060120230000000
00000000010001616216211081048RCH060120230000003
00000000010001111161163076248YXT060120230000003
00000000010001111141142080012CT4060120230000003
00000000030003131191191052413EQD060120230000006
00000000030003131171173059713LCD060120230000000
00000000030003131141142051913STR060120230000000
00000000050005151171174065848SAV060120230000000
00000000020002121181181066113CXC060120230000000
00000000030003131171173059713CC2060120230000004
00000000030003131141145056713SDH060120230000000
00000000020002121141142064012CT4060120230000000
00000000030003131151151057048CG2060120230000000
00000000030003333113114051948TR2060120230000002
00000000040004646216211057611EC1060120230000000
00000000020002121121124060348SAV060120230000000
00000000020002121141142064713ME2060120230000001
00000000010001111161164075848RRH060120230000000
00000000010001111161163075848SAV060120230000000
00000000020002121141141069313LCG060120230000000
00000000040004141121121052313CAC060120230000002
00000000010001212112114086248RTC060120230000100
00000000020002626216212061648RDH060120230000000
00000000050005151201202072413BUV060120230000001
00000000040004141111111053713STC060120230000043
00000000050005353123122068212CT5060120230000000
00000000030003131111112053413STE060120230000002
00000000020002121141141063248YT1060120230000000
00000000040004141121123054913ST1060120230000000
00000000040004141151152054913S45060120230000000
00000000040004141181183051613CAC060120230000000
00000000030003232112112057148CG2060120230000016
00000000050005252112111051011ECR060120230000025
00000000030003131191193068648ACG060120230000001
00000000030003131111112054813SDH060120230000004
00000000050005252122121054011ECR060120230000002
00000000020002121111116064813TXK060120230000000
00000000020002626216213065048RCH060120230000001
00000000010001212112112082048RTC060120230000074
00000000010001111141142080012LYQ060120230000002
00000000020002121161161062313BEV060120230000006
00000000050005151141142056348YXT060120230000000
00000000030003131151154057013LCG060120230000000
00000000040004141171172055413TBZ060120230000005
00000000030003131181182065913ST1060120230000017
00000000050005151201201061313TBZ060120230000021
00000000010001111111114079013LXD060120230000000
00000000020002121131133067148RCH060120230000010
00000000020002121111116064813S45060120230000000
00000000020002121121124060313SDH060120230000000
00000000040004343113112053312CT4060120230000001
00000000020002121141141069311EC1060120230000001
00000000030003131151153056011ECR060120230000001
00000000020002222142144069311ECR060120230000004
00000000050005151201204067648RCH060120230000006
00000000030003131161162058413SDH060120230000001
00000000030003131141143051713CAC060120230000000
00000000040004141171173050813LXD060120230000000
00000000050005151191194076448TR2060120230000001
00000000050005252132132052748RTR060120230000001
00000000010001111111112077313SCH060120230000007
00000000050005151161163061048RDH060120230000000
00000000030003131141143056713SDH060120230000002
00000000050005151211213070248RTE060120230000004
00000000020002222122123062348SAV060120230000002
00000000030003131111111052812CT4060120230000004
00000000010001111111113075148RTE060120230000000
00000000050005151141142055113CXC060120230000000
00000000020002121171174062512CT5060120230000000
00000000050005151151151052713BUV060120230000000
00000000020002222132132063648RTC060120230000153
00000000040004141161162056913EXP060120230000001
00000000050005151161165067513TBZ060120230000020
00000000020002121181182064113LCG060120230000000
00000000010001111131133086213EQD060120230000005
00000000020002121121125060513CXC060120230000000
00000000010001111161164075613LXD060120230000000
00000000030003131151151057013TBZ060120230000016
00000000040004242132133051111EGX060120230000003
00000000020002222112112061948TR2060120230000006
00000000050005151111111053648RTR060120230000000
00000000030003131151151055013TXK060120230000000
00000000050005151211214070213ME2060120230000000
00000000050005151151151050913STR060120230000000
00000000030003131131133052413ME2060120230000004
00000000050005656216211063748ACG060120230000001
00000000020002121171173061812EST060120230000001
00000000010001111141145077113EQD060120230000009
00000000050005151161166068213STE060120230000000
00000000050005151161161064813ST1060120230000002
00000000020002121151154064313STC060120230000040
00000000010001111161163076213BEV060120230000000
00000000020002222112112067048ACG060120230000019
00000000020002121171174062548RTC060120230000012
00000000030003131181181073613CXC060120230000000
00000000030003131121121053913LCG060120230000001
00000000030003131121121053912CT4060120230000001
00000000010001111121123082012CT4060120230000000
00000000020002121181185060013LXD060120230000000
00000000020002121181185063348TR2060120230000000
00000000010001212132135075648RTE060120230000001
00000000040004141161162051112EST060120230000001
00000000030003131161163057311EN2060120230000008
00000000050005252122121058348RTR060120230000001
00000000030003232122121052411ECR060120230000008
00000000020002121131133067113TBZ060120230000050
00000000050005151211211061313LXD060120230000000
00000000040004141161161051248RDH060120230000000
00000000030003131151153056013SRH060120230000000
00000000050005151141143054013SCH060120230000023
00000000020002121131133067148CG2060120230000002
00000000020002121191194062448SAV060120230000000
00000000040004141171172050848RDH060120230000000
00000000050005252132132052748RRH060120230000001
00000000050005151151155064813SDH060120230000000
00000000040004141111113052113BUV060120230000005
00000000020002222142142070948YT1060120230000015
00000000040004141181181056513LCD060120230000000
00000000040004141171172050813Y2X060120230000010
00000000050005252132131052713S45060120230000000
00000000020002323113113067012CT4060120230000001
00000000050005151181182063748ACG060120230000000
00000000050005151161165068248ACG060120230000001
00000000050005151191193062413BEV060120230000000
00000000040004242112115055248TR2060120230000000
00000000050005151161165061012CT5060120230000001
00000000010001111131135086813TXK060120230000000
00000000050005151161163060213EXP060120230000005
00000000030003131171174054113EXP060120230000000
00000000040004141121124050248YXT060120230000000
00000000010001212122124082511EC1060120230000002
00000000010001111111114077313LXD060120230000000
00000000040004242122125057748TR2060120230000015
00000000030003131151154056013ST1060120230000006
00000000040004141121124052313Y2X060120230000000
00000000020002121171173061848SAV060120230000000
00000000010001111151152075313SDH060120230000013
00000000050005151211213070511EN2060120230000013
00000000040004141161162051148SAV060120230000000
00000000030003131121124065648RTR060120230000002
00000000020002121151151074613SDH060120230000000
00000000020002121191193074013LCG060120230000000
00000000050005252152151070548RTR060120230000001
00000000020002222132133064311EGX060120230000008
00000000030003131171174054113T9B060120230000003
00000000020002121151152062213CXC060120230000000
00000000050005252142141060248RTR060120230000002
00000000050005151191192072548CG2060120230000000
00000000030003232122123073648RTR060120230000001
00000000020002222132132062648CXG060120230000000
00000000050005151211215070213LXD060120230000000
00000000050005151181183061113LXD060120230000000
00000000030003333113112057112LYQ060120230000014
00000000040004141121124054313EQD060120230000004
00000000020002121171172069211EN2060120230000002
00000000020002121141143069313T9B060120230000009
00000000040004141121123054913LCG060120230000000
00000000030003232122122069112EST060120230000001
00000000030003131131134057513EQD060120230000003
00000000030003232132132051711EGX060120230000031
00000000020002222142143062211ECR060120230000006
00000000050005252152151070548ACG060120230000003
00000000040004242142143051448RDH060120230000009
00000000020002121161165062313STE060120230000000
00000000040004242122122050112XT5060120230000003
00000000010001111141143080312EST060120230000007
00000000030003333123124055612LYQ060120230000006
00000000020002121181184063611ECR060120230000002
00000000020002121161162062311EGX060120230000011
00000000050005151201201067613BUV060120230000001
00000000040004141161163051113SCH060120230000075
00000000050005252152153076448CXG060120230000000
00000000010001111131131080713ST1060120230000010
00000000010001111151151077013T9B060120230000012
00000000030003131131131053013CBC060120230000000
00000000050005252132133061111EGX060120230000003
00000000030003131171174052948SAV060120230000000
00000000030003131191192063048RDH060120230000002
00000000050005151161164060213TT1060120230000026
00000000030003131121123053013LCG060120230000000
00000000040004141171172050813LXD060120230000000
00000000010001111141141096113SDH060120230000000
00000000020002121191194072248RTC060120230000020
00000000050005151131134050511EN2060120230000005
00000000030003131181182065948RTR060120230000000
00000000010001111111112076713LXD060120230000000
00000000050005151121123054248RTR060120230000002
00000000050005151131134051311EN2060120230000009
00000000010001111131135081113ST1060120230000000
00000000030003636216212051848RDH060120230000000
00000000030003131151151051913LCG060120230000000
00000000010001111151153075312XT5060120230000000
00000000010001212112113080711EN2060120230000012
00000000050005151191191063148RTR060120230000000
00000000030003232112113053412LYQ060120230000000
00000000040004141151153057713S45060120230000000
00000000010001111121121081913BUV060120230000032
00000000050005151201203068713ST1060120230000004
00000000040004242112115055248CG2060120230000000
00000000050005151121125054213LXD060120230000000
00000000010001212132134075111EC1060120230000015
00000000050005252132133063712CT5060120230000000
00000000050005252152151055348RCH060120230000002
00000000030003131191191069848RTR060120230000000
00000000020002121121121061613S45060120230000004
00000000030003232142141064948CG2060120230000001
00000000010001111121122074312LYQ060120230000000
00000000050005252122125056311EGX060120230000037
00000000010001313113111082012CT5060120230000001
00000000050005151141142055111ECR060120230000000
00000000030003232132133058448CG2060120230000000
00000000020002121191194072213ST1060120230000002
00000000030003232122124053013LXD060120230000000
00000000010001212132134075948TR2060120230000001
00000000020002121141144071813TBZ060120230000027
00000000040004242142142050811EC1060120230000005
00000000020002121141144071013TBZ060120230000009
00000000010001111161162075813CC2060120230000008
00000000020002121161165066213CAC060120230000000
00000000050005151181181068213SDH060120230000003
00000000010001111151154075313S45060120230000000
00000000020002222112111065212XT6060120230000001
00000000050005151151151052713STR060120230000000
00000000030003131131132052448RCH060120230000018
00000000010001111131135086213CXC060120230000000
00000000050005151141144056313Y2X060120230000019
00000000030003131111112052813CXC060120230000000
00000000030003131111113053413EQD060120230000115
00000000040004141181182051412LYQ060120230000000
00000000030003131171171052913TXK060120230000000
00000000030003131151154056048RTC060120230000010
00000000030003131161161054413STE060120230000007
00000000020002121191193072213SDH060120230000003
00000000040004141141143051213SRH060120230000000
00000000020002222142142062848RRH060120230000001
00000000020002222132132061848YXT060120230000001
00000000050005151161164060213STR060120230000000
00000000020002626216211075911EC1060120230000001
00000000020002626216213061911ECR060120230000000
00000000020002121171173062613TXK060120230000000
00000000020002121181181066113BUV060120230000000
00000000030003131131131053013SDH060120230000000
00000000050005656216214067548YXT060120230000000
00000000050005151191194061313BEV060120230000000
00000000020002121181184060013SCH060120230000028
00000000020002121121122061613CC2060120230000011
00000000030003131151154055013LCD060120230000000
00000000020002121141141069313ST1060120230000000
00000000020002121171175070911EC1060120230000005
00000000040004141111112050648RTC060120230000045
00000000020002222132133064448YXT060120230000000
00000000020002121171175061213CAC060120230000000
00000000040004141151151057713CAC060120230000003
00000000030003232142142056413SRH060120230000000
00000000040004141111111053713TT1060120230000012
00000000030003131121123056113CAC060120230000011
00000000040004141151152055513STE060120230000018
00000000010001111111113075148YXT060120230000003
00000000010001212122122080348RRH060120230000007
00000000050005656216212070548RCH060120230000001
00000000030003131171174056413BZR060120230000001
00000000040004141171172059813TT1060120230000001
00000000010001111131131081313Y2X060120230000006
00000000020002121191194072212CT5060120230000000
00000000050005151171174065813ME2060120230000000
00000000050005151121125055848RTE060120230000000
00000000030003131121123053013CXC060120230000000
00000000020002121181182063513SRH060120230000000
00000000050005151191191067913Y2X060120230000015
00000000030003131161164055913CAC060120230000000
00000000010001111161163082048CG2060120230000001
00000000010001212132132075348CXG060120230000002
00000000030003131151152056048RTR060120230000001
00000000010001111161163075813TBZ060120230000002
00000000010001212132135075811EC1060120230000003
00000000050005252132133063712ET1060120230000002
00000000030003131121124068611EC1060120230000001
00000000020002121141141069348RCH060120230000008
00000000010001111131133080713TC1060120230000047
00000000050005151191194076448CXG060120230000000
00000000050005151131135058313CC2060120230000002
00000000050005151211213070548TR2060120230000005
00000000020002121181183079013CC2060120230000007
00000000050005252152154061311EGX060120230000006
00000000020002323123123071812XT5060120230000004
00000000020002121141141069313TXK060120230000000
00000000020002222142142061248YXT060120230000006
00000000050005151161166060213STC060120230000002
00000000050005353123122067912XT4060120230000005
00000000030003131131133050313BEV060120230000000
00000000020002121161163062348RTE060120230000006
00000000050005151211214070513TXK060120230000000
00000000020002323113113069312CT4060120230000001
00000000030003131121121053912XT6060120230000001
00000000010001111111112076713TC1060120230000001
00000000020002121171172061813TXK060120230000001
00000000030003131171173056413EQD060120230000057
00000000050005151151154058113TC1060120230000004
00000000030003131151154055048CG2060120230000000
00000000030003232132134051948RTR060120230000000
00000000040004141181183051613SCH060120230000013
00000000020002121181184063613TXK060120230000000
00000000030003232122121052448CXG060120230000001
00000000020002121121124067048RTE060120230000000
00000000050005151201204061311EC1060120230000001
00000000040004242122125057711ECR060120230000002
00000000050005151211214070213LXD060120230000000
00000000040004141121121052313STE060120230000014
00000000020002121131131065012XT4060120230000000
00000000040004141171174059813SRH060120230000000
00000000020002121111112060913EQD060120230000043
00000000050005151191191062413BZR060120230000000
00000000010001212122123080312XT5060120230000019
00000000010001111161162075813TT1060120230000005
00000000040004141121124052313BEV060120230000002
00000000030003232132133058448RCH060120230000001
00000000020002121111115063913CXC060120230000000
00000000030003232112111052848RCH060120230000026
00000000020002121121125061613Y2X060120230000000
00000000010001111161162076413T9B060120230000000
00000000040004242112113052148RTE060120230000048
00000000050005252152152061348YXT060120230000032
00000000020002222112113060911EGX060120230000109
00000000020002121121124067013BUV060120230000000
00000000020002121111116060412ET1060120230000004
00000000010001111121122074548CG2060120230000002
00000000040004141161161051113Y2X060120230000002
00000000030003232132134054648RTR060120230000001
00000000050005252122122051348CXG060120230000000
00000000010001111161164075613ST1060120230000001
00000000020002121131132067113SDH060120230000000
00000000010001111161164075648RCH060120230000004
00000000050005151161161064813ME2060120230000000
00000000040004141141144051248RDH060120230000001
00000000030003636216212055611EC1060120230000000
00000000030003131181184065948TR2060120230000004
00000000030003131171173059713STR060120230000000
00000000050005151181182061113STR060120230000000
00000000030003131121123056113TBZ060120230000020
00000000020002121121123061913TXK060120230000000
00000000010001111131134086612LYQ060120230000002
00000000040004242142144050248SAV060120230000000
00000000050005353123122064812XT4060120230000001
00000000030003131121124065613BEV060120230000001
00000000050005151121124051548RCH060120230000001
00000000030003131131134052413TT1060120230000072
00000000010001111161162075513Y2X060120230000000
00000000020002222142142062848RTC060120230000019
00000000050005151181181068213SCH060120230000043
00000000040004141151152050213BUV060120230000001
00000000020002121141142064748YT1060120230000002
00000000010001111141144080313ST1060120230000036
00000000040004141161161051113STE060120230000001
00000000010001111131135086213S45060120230000000
00000000050005151111113051013BZR060120230000032
00000000010001111161163081013STE060120230000000
00000000010001111141142080013SRH060120230000002
00000000050005151121125050948RDH060120230000000
00000000030003232142142053148YT1060120230000005
00000000010001111131131081313TT1060120230000001
00000000020002121181182063548SAV060120230000000
00000000050005151171172061713EXP060120230000000
00000000010001111121124080113BZR060120230000000
00000000040004141121121054948CG2060120230000000
00000000020002121161164062313BZR060120230000013
00000000020002121131131065013TBZ060120230000044
00000000030003131151154054548YT1060120230000000
00000000030003232132133058411ECR060120230000001
00000000030003131141142054613ME2060120230000001
00000000020002121111116060413BEV060120230000003
00000000050005353123123072512ET1060120230000003
00000000020002121111115063212CT4060120230000000
00000000050005151131135058313T9B060120230000004
00000000050005151211215073713EXP060120230000000
00000000050005252122124051312XT4060120230000005
00000000040004141181181051413CC2060120230000003
00000000050005151121125055813EXP060120230000001
00000000020002121161163065748RTE060120230000000
00000000030003131191193063013BEV060120230000000
00000000030003131141143056713CXC060120230000000
00000000010001111161161075748YT1060120230000010
00000000020002121161165062313SDH060120230000001
00000000010001111151151077013ST1060120230000019
00000000010001111161161076013TT1060120230000000
00000000030003131151151055013SRH060120230000000
00000000050005151161165061048RTC060120230000009
00000000040004141111115053713CBC060120230000000
00000000030003232132131056012XT5060120230000007
00000000040004242122122053348RCH060120230000007
00000000020002121111116060412CT5060120230000000
00000000050005151111114051012CT4060120230000001
00000000020002121141141063248RTC060120230000004
00000000030003232122122063012XT5060120230000003
00000000030003131181183055711EN2060120230000005
00000000030003131181181065913TC1060120230000001
00000000020002222122124062548ACG060120230000014
00000000050005151211214061313TXK060120230000000
00000000020002222122124062548RDH060120230000000
00000000040004141111111053711EGX060120230000003
00000000030003131131134056713CXC060120230000000
00000000030003232122123073648RTC060120230000014
00000000050005151121125053548TR2060120230000005
00000000050005151161165061012CT4060120230000000
00000000050005151111112051013CBC060120230000005
00000000040004242122122050112CT4060120230000001
00000000010001111161164075613SCH060120230000012
00000000010001111151151077013CC2060120230000038
00000000010001111131133082813CAC060120230000000
00000000010001111121124080113SDH060120230000000
00000000010001111161162076613STC060120230000008
00000000020002121121122060513TXK060120230000000
00000000010001111141142080011ECR060120230000000
00000000050005151191192076412XT5060120230000000
00000000040004242122123050148TR2060120230000048
00000000020002121111114063248RDH060120230000000
00000000010001111131132086213CAC060120230000005
00000000050005151211215070213STC060120230000002
00000000040004141161161051213SCH060120230000058
00000000050005252152151065812XT5060120230000001
00000000010001111141145080412CT5060120230000006
00000000030003131191192069113STE060120230000004
00000000020002222122122063311EGX060120230000010
00000000050005151111113059612ET1060120230000001
00000000030003333113113053048SAV060120230000001
00000000040004141181181053813TBZ060120230000151
00000000030003131181181064913STR060120230000000
00000000040004141131134050111EGX060120230000020
00000000050005252132131052713STR060120230000000
00000000030003131191193063013CXC060120230000000
00000000040004141111115050013TBZ060120230000016
00000000050005353113112054012XT6060120230000002
00000000050005151161166064813BEV060120230000003
00000000030003131141141051913LCG060120230000000
00000000030003333123122055712CT4060120230000001
00000000010001111131135086613BUV060120230000001
00000000010001313123123080712XT5060120230000006
00000000050005151121123055813S45060120230000000
00000000030003131131132052413STE060120230000011
00000000030003232132131055048YXT060120230000010
00000000030003131171174054113S45060120230000000
00000000050005151161163060212CT4060120230000001
00000000010001212112114081148RCH060120230000018
00000000040004141121121054913TC1060120230000007
00000000030003131161161054413ST1060120230000030
00000000040004141131134050113TT1060120230000037
00000000010001111161164075513S45060120230000000
00000000050005252142141060212ET1060120230000006
00000000050005151201202068713Y2X060120230000002
00000000010001111161164079813LCG060120230000000
00000000030003333123122054112XT5060120230000002
00000000040004141181182053813BZR060120230000002
00000000020002222132132061848RTR060120230000000
00000000010001111161164079813S45060120230000000
00000000020002121171174062513STE060120230000007
00000000020002222142143071048RDH060120230000001
00000000020002121111115063213BEV060120230000001
00000000010001111131133082813CXC060120230000000
00000000010001111161164079813EXP060120230000000
00000000020002121161163065713TC1060120230000022
00000000050005353123122068212ET1060120230000001
00000000020002121121125063813CAC060120230000000
00000000020002121171172061811EC1060120230000003
00000000010001111151153078913TBZ060120230000019
00000000030003131131133050313LCD060120230000000
00000000020002121111114063213Y2X060120230000010
00000000020002121121123061948CG2060120230000000
00000000020002121191194072212XT5060120230000000
00000000010001212132133079011EC1060120230000006
00000000050005151131135054013BEV060120230000002
00000000050005151141142051313TBZ060120230000002
00000000030003131131134052448RTC060120230000004
00000000030003131161164055948RTR060120230000003
00000000050005252112113055848YXT060120230000000
00000000010001111131131081348YXT060120230000000
00000000050005252132131058148CXG060120230000000
00000000050005151211212070213SDH060120230000000
00000000050005151181182070248RTC060120230000008
00000000030003131131134052413S45060120230000004
00000000030003131151153051748YXT060120230000003
00000000020002121191194062413CXC060120230000000
00000000050005151191191067913T9B060120230000050
00000000010001313123122080348SAV060120230000000
00000000020002222142141063948YT1060120230000005
00000000010001212122121085548TR2060120230000002
00000000050005151211215061313CXC060120230000000
00000000010001212132135076712XT5060120230000000
00000000050005151201202072448CG2060120230000000
00000000020002121141141063213LCD060120230000000
00000000040004141161164056648TR2060120230000003
00000000020002121121122061613BZR060120230000009
00000000020002121121122061648RDH060120230000001
00000000010001111141143080313STE060120230000012
00000000030003131171174055713STR060120230000000
00000000020002121161162062313TT1060120230000052
00000000050005151171172065813BEV060120230000006
00000000050005151201202072413LCG060120230000000
00000000020002121171173061813CXC060120230000000
00000000010001111161164076711EN2060120230000000
00000000030003232142142059711EN2060120230000002
00000000030003131191193069813SDH060120230000000
00000000020002121191193075913ME2060120230000000
00000000030003131151151057013EQD060120230000016
00000000050005151191193063113TBZ060120230000000
00000000020002222112112060348CXG060120230000000
00000000030003232112113053448RDH060120230000004
00000000020002222112111063848CG2060120230000000
00000000020002121141143069313CAC060120230000002
00000000020002121181183063313BZR060120230000006
00000000030003131151153051813Y2X060120230000017
00000000040004141171174055413SDH060120230000000
00000000010001313113112079012CT5060120230000003
00000000050005151211213067613Y2X060120230000000
00000000020002121181183076513STR060120230000000
00000000050005151141141054748RTE060120230000000
00000000030003232142142056413LCD060120230000000
00000000050005151191193063113ME2060120230000000
00000000030003232112112057148SAV060120230000003
00000000030003131131131052548RDH060120230000000
00000000010001111151153078948RRH060120230000000
00000000030003131181183057513TT1060120230000005
00000000020002121181184060048TR2060120230000006
00000000020002222122121065048ACG060120230000036
00000000050005151191192062413STC060120230000024
00000000010001111131135080213CBC060120230000000
00000000040004242142141050848SAV060120230000001
00000000040004141151151057713LCG060120230000000
00000000050005252122125056312XT6060120230000004
00000000010001212132135076448RCH060120230000008
00000000030003333123121052412CT4060120230000011
00000000010001111111112075112ET1060120230000004
00000000010001111111112076713LCD060120230000000
00000000050005151201202072448RTC060120230000046
00000000030003131141141052013CBC060120230000000
00000000030003131111111096013SDH060120230000000
00000000050005151151155064813CBC060120230000000
00000000020002121151153061248RCH060120230000013
00000000020002222132133071648YT1060120230000030
00000000010001313123121080311ECR060120230000001
00000000020002121191192067813CAC060120230000000
00000000040004141121123055513BUV060120230000000
00000000040004141121123052613S45060120230000000
00000000020002121181184060013BZR060120230000006
00000000050005151121123054713LCD060120230000000
00000000020002121191194062413TBZ060120230000002
00000000030003333113112052848CXG060120230000001
00000000050005252132133068248RTE060120230000002
00000000010001111141141074413SDH060120230000001
00000000020002121181181063513EXP060120230000024
00000000040004141151153056613T9B060120230000002
00000000020002121151151062213BZR060120230000014
00000000030003131141141052013TXK060120230000000
00000000010001111161161088113BUV060120230000006
00000000040004141121124050248ACG060120230000001
00000000050005151191192072513TT1060120230000016
00000000010001111131133086213CBC060120230000002
00000000050005151161166060213LXD060120230000000
00000000040004343123122056612CT4060120230000002
00000000050005151211213070213CBC060120230000000
00000000020002121161161062313TT1060120230000085
00000000050005151161166067513ST1060120230000002
00000000030003131171171052913SDH060120230000008
00000000020002121181184060012CT5060120230000001
00000000020002121121125061648RDH060120230000000
00000000040004141161162056913LCD060120230000000
00000000010001212122121083948RTE060120230000005
00000000050005252132134064848CG2060120230000000
00000000040004141181183051411EC1060120230000001
00000000050005151121123054213BEV060120230000002
00000000040004141181182053848RDH060120230000000
00000000020002121161164062313STE060120230000003
00000000010001212122124082548YT1060120230000009
00000000010001111151154078948ACG060120230000000
00000000010001111151154077013Y2X060120230000010
00000000050005151201204061348RDH060120230000000
00000000010001111131135081313SCH060120230000004
00000000030003333113114055012XT4060120230000002
00000000030003131151154055013TXK060120230000000
00000000040004141121124053211ECR060120230000000
00000000010001111121124080113CAC060120230000000
00000000050005151201201067648RTE060120230000004
00000000010001111121122074313Y2X060120230000002
00000000020002121151152071648RTR060120230000000
00000000010001111161162076613ME2060120230000000
00000000040004343113111050612ET1060120230000029
00000000050005151151151052713CBC060120230000000
00000000040004242112111052348ACG060120230000020
00000000010001212112112082011EGX060120230000043
00000000050005252132132058248YXT060120230000001
00000000030003636216211069813TC1060120230000000
00000000040004141141144057612ET1060120230000001
00000000050005656216214067548RRH060120230000000
00000000020002121181185063313CC2060120230000003
00000000030003131171173056448YXT060120230000001
00000000050005151131135058313STR060120230000000
00000000050005151161162060213BZR060120230000042
00000000040004141151153055513BUV060120230000000
00000000010001313123122080312XT4060120230000004
00000000050005151151154052713Y2X060120230000010
00000000020002323113113067012CT5060120230000001
00000000040004141111112050613S45060120230000001
00000000030003131121123056113BUV060120230000007
00000000040004242122124050148YT1060120230000030
00000000020002121191195067848TR2060120230000000
00000000040004141121123055513SRH060120230000000
00000000050005151151154064813CBC060120230000000
00000000010001111111114075113LCD060120230000000
00000000010001111141141096113TXK060120230000000
00000000040004141111111050013BEV060120230000003
00000000010001111161163076212CT5060120230000000
00000000040004141121124053213LCG060120230000000
00000000020002222132132060048YXT060120230000004
00000000020002222122121065012XT6060120230000006
00000000010001111161163075413TXK060120230000000
00000000010001111141145077113CXC060120230000000
00000000030003131111113053413ST1060120230000029
00000000030003232132134052048YT1060120230000006
00000000050005151151151054713STR060120230000000
00000000020002121151152064213CBC060120230000002
00000000040004141131135050113CAC060120230000007
00000000040004141111115055248RCH060120230000002
00000000010001111111114075111ECR060120230000000
00000000020002121141141063213TC1060120230000000
00000000030003131151154055013EXP060120230000000
00000000040004141151151057748YXT060120230000003
00000000050005252132132052712EST060120230000001
00000000030003131131131052513BZR060120230000002
00000000050005151151154058111EN2060120230000001
00000000030003131191191069813SRH060120230000000
00000000040004141141144057612XT4060120230000001
00000000020002121111116064813BUV060120230000000
00000000050005252132131052748CG2060120230000005
00000000040004343113112052112XT4060120230000004
00000000050005252112114054248CG2060120230000003
00000000050005151171174061713SDH060120230000000
00000000040004242142141050848RCH060120230000019
00000000020002222112111061611EN2060120230000031
00000000050005151181182061148RTR060120230000000
00000000050005151121125054213TT1060120230000000
00000000040004141121121054913LXD060120230000000
00000000040004141161163051113EQD060120230000077
00000000050005151201202072448RTE060120230000007
00000000020002222132131061848RTC060120230000389
00000000020002626216212061648CG2060120230000000
00000000020002121121121063813Y2X060120230000000
00000000040004141161161051113STC060120230000017
00000000040004141181183051413CXC060120230000000
00000000020002121191193074013BEV060120230000000
00000000010001616216212077048SAV060120230000000
00000000020002121181183079013CXC060120230000000
00000000050005151211212061312XT5060120230000000
00000000030003131191192069111EC1060120230000001
00000000030003232122124053013STC060120230000002
00000000040004141111113052113CBC060120230000002
00000000030003333123121052448RTE060120230000001
00000000030003232122123073611EGX060120230000009
00000000050005252132133068248RCH060120230000002
00000000050005252152152061348RTR060120230000004
00000000030003232132132051848RTE060120230000002
00000000050005656216214068248TR2060120230000000
00000000020002121131132063413STR060120230000000
00000000040004141171174051113TC1060120230000004
00000000030003131151154054513CC2060120230000002
00000000040004141111112050612ET1060120230000006
00000000040004141111115053748RTE060120230000001
00000000020002222142142062848YXT060120230000004
00000000010001111121124081948RDH060120230000000
00000000030003131171172054113BEV060120230000002
00000000020002121111112060911EN2060120230000012
00000000020002121151154064413CAC060120230000000
00000000030003131131133052411EGX060120230000037
00000000050005151131133051313EQD060120230000090
00000000010001111131134086213LCG060120230000000
00000000020002323113112065212XT5060120230000004
00000000040004141171174050848RRH060120230000000
00000000050005151161165064813CC2060120230000009
00000000020002222132134074912XT6060120230000002
00000000050005353113113050512ET1060120230000073
00000000030003131161163055913CBC060120230000001
00000000030003333123123051712XT5060120230000006
00000000050005252112113051048RTE060120230000002
00000000050005151121125053512XT6060120230000000
00000000020002121151151062211ECR060120230000001
00000000040004141121124052313T9B060120230000004
00000000020002121111112060912ET1060120230000016
00000000050005151191193062413Y2X060120230000002
00000000030003131191191069813S45060120230000000
00000000020002121181182063513STR060120230000000
00000000050005353113111053512XT6060120230000006
00000000010001111121124080111ECR060120230000000
00000000050005151211213070548RRH060120230000000
00000000040004141171171057448CXG060120230000000
00000000020002121161164062313ST1060120230000013
00000000030003131171174054113LXD060120230000000
00000000020002121151154062813CAC060120230000000
00000000030003131121122053913SDH060120230000008
00000000010001111161163076212ET1060120230000000
00000000050005151201201067612XT5060120230000000
00000000010001212122122080048RTE060120230000008
00000000050005252122125056312ET1060120230000006
00000000020002121121124060313TXK060120230000000
00000000010001111161162075613LCD060120230000000
00000000050005151151155052713SCH060120230000008
00000000010001111161164075813STC060120230000003
00000000010001212132135075812CT5060120230000000
00000000020002626216213065048RTR060120230000000
00000000020002222112112061912XT6060120230000001
00000000020002121181185064148ACG060120230000004
00000000030003131141145054613SDH060120230000000
00000000020002121131131065048SAV060120230000001
00000000010001212132133079048YT1060120230000021
00000000050005151151154052713S45060120230000000
00000000050005151151153050913LXD060120230000000
00000000040004141151151057713BZR060120230000017
00000000050005151121125053513CC2060120230000005
00000000020002121131133067113CC2060120230000032
00000000050005151191194068713CBC060120230000000
00000000040004141131133050113EQD060120230000070
00000000030003131111112054811EN2060120230000000
00000000020002121121123061913SRH060120230000001
00000000040004141151152055513ST1060120230000014
00000000040004141171174055413SCH060120230000007
00000000020002121181185060013SCH060120230000010
00000000050005151131132050548CXG060120230000000
00000000030003131151154054513EXP060120230000000
00000000010001212132131077012EST060120230000002
00000000010001111121123082013BUV060120230000033
00000000010001111121123080113Y2X060120230000000
00000000010001111131133080712CT5060120230000004
00000000050005252152154067648RTE060120230000005
00000000040004141141141050413ME2060120230000008
00000000010001111161162076613BZR060120230000001
00000000050005151141141054713TC1060120230000040
00000000050005252152151055348RRH060120230000000
00000000020002121121125061611ECR060120230000000
00000000040004242112113052111EGX060120230000028
00000000020002121171175070948RTR060120230000001
00000000050005151151154052748TR2060120230000006
00000000050005151141142051313ST1060120230000000
00000000010001111131131081312XT6060120230000001
00000000030003131191192069148RCH060120230000002
00000000010001111161162076248RTR060120230000000
00000000030003131141144051713TXK060120230000002
00000000020002121131134065113TT1060120230000006
00000000010001111111114075213TXK060120230000000
00000000030003232132133054448RTE060120230000007
00000000030003131141142054648RDH060120230000000
00000000030003131151151054513LXD060120230000000
00000000050005151211211061348RTE060120230000002
00000000020002626216211075148CG2060120230000000
00000000030003636216211060648SAV060120230000000
00000000020002222142143074648RTE060120230000003
00000000030003232122124053013TC1060120230000001
00000000050005151131134050513SDH060120230000000
00000000020002626216214079048RCH060120230000002
00000000030003131181184055748YXT060120230000000
00000000050005151211214061313CC2060120230000002
00000000020002121171174062513TXK060120230000000
00000000050005151171174070513BUV060120230000000
00000000030003131161162055611EN2060120230000005
00000000040004141171174059813TC1060120230000001
00000000040004141121124053213CXC060120230000000
00000000020002121141142064713STC060120230000014
00000000020002121171174062512CT4060120230000000
00000000040004141121124053313SCH060120230000011
00000000040004141111112050648RTE060120230000039
00000000030003232142141054148RTE060120230000005
00000000040004141141144057613SDH060120230000001
00000000010001212122122080048RRH060120230000022
00000000020002626216211060548YXT060120230000000
00000000040004141111115055248CG2060120230000000
00000000050005252122122050548RTE060120230000069
00000000030003131151153056013LCD060120230000000
00000000010001111161162075513BUV060120230000000
00000000010001111151154078948TR2060120230000000
00000000050005151211215061311EC1060120230000002
00000000040004141181183051613BUV060120230000001
00000000050005151171173066912ET1060120230000001
00000000040004141161162056948RRH060120230000006
00000000020002121151152062213SRH060120230000000
00000000050005151181183061113CC2060120230000005
00000000030003131131131050311EN2060120230000001
00000000040004141171174051113STC060120230000013
00000000050005151121125055848RTC060120230000000
00000000040004141121123054913CAC060120230000000
00000000010001111121123082012CT5060120230000000
00000000040004141141141057713TT1060120230000000
00000000050005151161165061013S45060120230000000
00000000050005252122122051348RDH060120230000002
00000000050005151191192076413BUV060120230000001
00000000020002222142143071012EST060120230000000
00000000040004141141144050413LCD060120230000000
00000000030003232122122069148RRH060120230000003
00000000030003232122123057548RTE060120230000002
00000000030003232112113053413BZR060120230000004
00000000020002121181184063613CC2060120230000022
00000000030003131151153056013BZR060120230000002
00000000040004242112113050611EC1060120230000009
00000000030003131141144051748RCH060120230000023
00000000030003131121124065613S45060120230000000
00000000050005151161165061012XT5060120230000000
00000000010001212132135075648ACG060120230000003
00000000040004141121122053313SDH060120230000007
00000000020002121181182063513TC1060120230000001
00000000020002323123124063512XT4060120230000022
00000000030003131121123056148SAV060120230000000
00000000040004242112115050048SAV060120230000000
00000000050005252142144061048TR2060120230000002
00000000020002222122122065148SAV060120230000000
00000000040004242122124050148RTR060120230000007
00000000010001111151154077013CAC060120230000000
00000000020002121181182063513TBZ060120230000001
00000000020002121111116064848RDH060120230000000
00000000030003131161162058448CG2060120230000000
00000000010001313123123086248TR2060120230000001
00000000040004242132132050448TR2060120230000017
00000000010001111161164075413S45060120230000000
00000000050005151131134051348SAV060120230000000
00000000030003131191193068613EXP060120230000000
00000000010001111121123080148YT1060120230000002
00000000040004141111115053748ACG060120230000003
00000000040004343123122057412LYQ060120230000000
00000000010001313113113075348RTR060120230000001
00000000030003131181182065913CAC060120230000010
00000000020002121191194062411EC1060120230000004
00000000020002121121124060313EXP060120230000000
00000000050005151161165067548YT1060120230000000
00000000010001111161164068748CXG060120230000000
00000000030003131121121053912XT4060120230000003
00000000030003131181181073613BUV060120230000001
00000000010001111161164075613STE060120230000000
00000000020002222122124062348RTC060120230000102
00000000010001212112111081948RTR060120230000000
00000000010001111141142080013T9B060120230000001
00000000030003232112111054813TT1060120230000007
00000000030003131111112052813Y2X060120230000012
00000000010001111131134086613TXK060120230000000
00000000020002222132133064211EC1060120230000015
00000000010001111141145080413ME2060120230000001
00000000050005151211215061113CBC060120230000000
00000000030003131191192069113CBC060120230000011
00000000050005151141142056313LXD060120230000000
00000000020002121161163062348YXT060120230000005
00000000040004141171171050813Y2X060120230000002
00000000050005151161166067548CG2060120230000000
00000000020002626216211075148RTC060120230000002
00000000010001111141142080013TXK060120230000000
00000000050005151141143056348RTR060120230000000
00000000040004242132133050448TR2060120230000001
00000000040004141131135050113ME2060120230000013
00000000050005252132131052748TR2060120230000045
00000000010001111141144080313CAC060120230000009
00000000050005151211212061113TBZ060120230000006
00000000010001111141144080313BZR060120230000041
00000000040004141111113050612XT4060120230000002
00000000050005151151154064813ME2060120230000000
00000000010001111121122074311EC1060120230000001
00000000020002121181185063513ME2060120230000000
00000000040004141111115053748CG2060120230000000
00000000010001111131135081313LXD060120230000000
00000000040004141131133050112XT4060120230000003
00000000030003131141142054613BZR060120230000009
00000000010001111141143080348RCH060120230000012
00000000050005656216212070248RTC060120230000003
00000000010001212132133075248ACG060120230000011
00000000030003131131131052513CBC060120230000000
00000000010001111131131081313BEV060120230000001
00000000010001111161164075848CXG060120230000000
00000000040004141111111050013Y2X060120230000006
00000000040004141121121052311EC1060120230000003
00000000050005151201202072412XT5060120230000002
00000000050005151151155064813SCH060120230000002
00000000040004242132135051148SAV060120230000000
00000000030003131121121053913T9B060120230000045
00000000050005252152151055348RTC060120230000006
00000000020002121121125063113CC2060120230000001
00000000020002121151153061213CBC060120230000007
00000000050005151151155052748RTE060120230000000
00000000030003131141141050713SDH060120230000002
00000000030003131151153056012XT6060120230000004
00000000030003232112113053413LCD060120230000000
00000000050005151131133051313LXD060120230000000
00000000010001212112113080712XT6060120230000005
00000000010001111131131086813TC1060120230000005
00000000020002626216211074048ACG060120230000000
00000000050005151201202068713ME2060120230000001
00000000050005151181183067913BEV060120230000001
00000000050005151141142051313BUV060120230000000
00000000020002222142143071848ACG060120230000007
00000000040004141171171057448RCH060120230000004
00000000050005151141144056348YXT060120230000001
00000000010001111131134086213EQD060120230000020
00000000020002121191192067813STR060120230000000
00000000030003131141145051913CC2060120230000001
00000000050005151201204061313CXC060120230000000
00000000040004141121123053213TT1060120230000032
00000000010001111111112075913Y2X060120230000000
00000000050005151191191062413T9B060120230000001
00000000040004141181182051412XT4060120230000000
00000000050005252132132058812EST060120230000001
00000000020002121191193075113SDH060120230000000
00000000010001111141142080013BEV060120230000003
00000000020002121191191065213EQD060120230000041
00000000050005151181182063713S45060120230000000
00000000010001212132131077048RCH060120230000093
00000000010001111121121081911EC1060120230000003
00000000020002121121124061913LCD060120230000000
00000000010001111131131080713LCD060120230000000
00000000040004141171172059813BEV060120230000000
00000000050005151121125050913BZR060120230000001
00000000030003131121121053913BEV060120230000004
00000000020002121141143069313Y2X060120230000017
00000000040004242112115050013STR060120230000000
00000000030003131141142051913CBC060120230000000
00000000010001212132133077348RTE060120230000001
00000000050005252132134067548RTR060120230000000
00000000050005252112114054248RTE060120230000009
00000000050005151161163061048YXT060120230000000
00000000010001111151151077013LCG060120230000000
00000000030003636216212051848CG2060120230000000
00000000030003333123121052448RRH060120230000000
00000000050005151131131050513ME2060120230000037
00000000040004141161161051213STC060120230000151
00000000040004141111113050613SDH060120230000006
00000000010001111151151077012XT5060120230000003
00000000010001111131135086213LCD060120230000000
00000000030003131151154057013TXK060120230000000
00000000050005151161166067548SAV060120230000001
00000000020002121191192067848SAV060120230000000
00000000020002222122123062311EC1060120230000038
00000000050005151151153058848YT1060120230000002
00000000050005151161164060212XT6060120230000002
00000000050005151131135054048RCH060120230000002
00000000020002121111111060948YXT060120230000004
00000000020002323123124066112LYQ060120230000000
00000000040004343113114051412EST060120230000002
00000000020002121181184060013STE060120230000002
00000000040004141121123054913T9B060120230000004
00000000050005151111111053613ME2060120230000011
00000000020002121141142064713EXP060120230000000
00000000050005151211213055313CAC060120230000000
00000000030003131131133052413SRH060120230000001
00000000050005151121121053513TXK060120230000000
00000000030003131151154056013CXC060120230000000
00000000030003333123124056012XT6060120230000002
00000000040004141171172050848YXT060120230000002
00000000050005252132134064812LYQ060120230000000
00000000020002121181185064148CG2060120230000004
00000000020002323123121063612CT5060120230000016
00000000010001111141145080348RCH060120230000004
00000000020002121121124061913BZR060120230000000
00000000030003131111113053413STE060120230000017
00000000020002626216211075148SAV060120230000000
00000000050005151121122052713LCD060120230000000
00000000010001212132131075748RCH060120230000025
00000000020002121191193075948YT1060120230000003
00000000050005151171172065813CXC060120230000000
00000000010001111121122074713TXK060120230000000
00000000050005252152154067648RRH060120230000000
00000000030003131171174056413STR060120230000000
00000000030003232122121052448RDH060120230000017
00000000050005151171172061711EN2060120230000003
00000000040004141121123055513T9B060120230000013
00000000020002626216212061648RCH060120230000001
00000000030003131121123053013T9B060120230000003
00000000050005151151153052713LXD060120230000000
00000000050005151211214067613STC060120230000004
00000000050005353123121060212CT5060120230000028
00000000050005151211213067613ME2060120230000000
00000000050005151141143056313SCH060120230000032
00000000020002323123123061212CT4060120230000002
00000000040004141181181056513TT1060120230000001
00000000020002222112111065248TR2060120230000008
00000000010001111161163075848CXG060120230000000
00000000010001212122122080348RTC060120230000111
00000000050005151181182070213EQD060120230000012
00000000040004343113112052112XT6060120230000003
00000000020002121181181063513SRH060120230000004
00000000030003131141142054613LCD060120230000000
00000000010001111151154075313ST1060120230000000
00000000010001111161163075413SRH060120230000000
00000000020002222132133062248RRH060120230000000
00000000030003333113111053412XT5060120230000019
00000000010001111121123082113EXP060120230000000
00000000030003131141142051713LCG060120230000000
00000000030003131151154055048RTC060120230000002
00000000040004141171172055411EC1060120230000003
00000000050005151151155064848ACG060120230000001
00000000010001111141144080313LCG060120230000001
00000000020002121111113060913EQD060120230000011
00000000020002121191194072213S45060120230000000
00000000040004242132132056648RDH060120230000003
00000000030003232122124052511EN2060120230000001
00000000040004343123123051112CT4060120230000008
00000000020002121171174062548RCH060120230000006
00000000040004242132133051148YT1060120230000000
00000000020002121181185064148RTE060120230000002
00000000040004242132133050411EN2060120230000003
00000000040004141111114050648YXT060120230000002
00000000050005151131134051313ME2060120230000009
00000000030003232112111054811ECR060120230000004
00000000050005656216213072548SAV060120230000000
00000000020002121141143069348RTR060120230000003
00000000010001111141145077113CAC060120230000000
00000000040004242112113050648RRH060120230000014
00000000010001616216211088148ACG060120230000000
00000000030003131131132052413ST1060120230000021
00000000050005151111113059613LCG060120230000000
00000000050005151171171061713STC060120230000124
00000000030003131151154057013STE060120230000000
00000000040004141151153057713Y2X060120230000006
00000000040004141151153056613SDH060120230000000
00000000040004242132132050411EN2060120230000016
00000000030003131141142051713BZR060120230000001
00000000040004242132132050411EC1060120230000009
00000000010001212132133075248TR2060120230000008
00000000050005151191193072513STC060120230000003
00000000050005151211215061148RDH060120230000000
00000000010001212132135076711ECR060120230000000
00000000030003131171174052913EQD060120230000007
00000000050005151191193072513TC1060120230000001
00000000050005151201202072413EQD060120230000044
00000000030003131111112053413EQD060120230000024
00000000030003131171174056413SRH060120230000001
00000000050005252142141060248RTC060120230000052
00000000020002121121125061648CXG060120230000000
00000000020002121131132065048CG2060120230000000
00000000020002121141144071813CBC060120230000004
00000000020002626216212060948TR2060120230000001
00000000020002222132132063612XT5060120230000003
00000000010001111121124082048SAV060120230000000
00000000050005151211212073713CBC060120230000001
00000000020002121171172069213TBZ060120230000007
00000000040004343123121050112EST060120230000049
00000000050005151191191062413SRH060120230000000
00000000050005151181182061113CBC060120230000000
00000000020002121141143069313TXK060120230000000
00000000030003131131133052213CXC060120230000000
00000000050005353123124070512EST060120230000001
00000000050005151111113051013SRH060120230000006
00000000010001111151153075311EGX060120230000015
00000000020002121141144071013CBC060120230000000
00000000010001111151153078913Y2X060120230000009
00000000050005151181182063748RTE060120230000000
00000000030003131181184055713SCH060120230000012
00000000030003131161162055613Y2X060120230000016
00000000040004242132133057648YT1060120230000003
00000000020002222122121065048RDH060120230000002
00000000020002222122124066148ACG060120230000009
00000000050005151161165064811EGX060120230000002
00000000010001111131133082813SDH060120230000003
00000000050005151171173061713SDH060120230000000
00000000040004242142143053812CT4060120230000001
00000000020002121191191065212XT4060120230000001
00000000010001212112114086212XT5060120230000003
00000000050005151211214067613TC1060120230000000
00000000030003131131132052413BEV060120230000006
00000000050005151121123054713STC060120230000030
00000000030003131121124053013STR060120230000000
00000000040004242142144056511ECR060120230000002
00000000050005151121124051548RTC060120230000003
00000000010001111151152075313TXK060120230000000
00000000050005151141141054712XT5060120230000005
00000000050005151131135051313STE060120230000004
00000000050005151191192072513EXP060120230000000
00000000050005151141144056348RTE060120230000001
00000000050005151211215061313STE060120230000003
00000000010001111161162075613SCH060120230000020
00000000030003131151151057011ECR060120230000000
00000000010001111131135081313ME2060120230000000
00000000050005151201202068748YT1060120230000002
00000000010001111131133080713STR060120230000003
00000000050005151171172061713CC2060120230000002
00000000030003131161164055913T9B060120230000007
00000000050005353123122064812CT4060120230000000
00000000020002222112111063848TR2060120230000003
00000000030003232112113053412XT6060120230000003
00000000010001616216212075148RDH060120230000000
00000000030003131161162058413TXK060120230000000
00000000050005151201203072413BUV060120230000000
00000000010001212122121085548CXG060120230000000
00000000040004242142144054948CG2060120230000001
00000000050005151191191063148RTC060120230000009
00000000050005151211213070213STC060120230000026
00000000020002121181185064113SDH060120230000000
00000000010001111161164075513Y2X060120230000000
00000000040004141181182053813LCD060120230000000
00000000050005151161163060211ECR060120230000000
00000000010001111151151077048RTC060120230000011
00000000010001111141141074448CXG060120230000000
00000000020002121181184074913TBZ060120230000001
00000000030003232122121052448RCH060120230000127
00000000050005151171173061713CBC060120230000000
00000000020002121171175062313ST1060120230000000
00000000010001111151152075348RCH060120230000005
00000000050005252142144061048CXG060120230000000
00000000040004141111112052348YXT060120230000003
00000000030003131141144051748RTE060120230000006
00000000010001212132133075211EGX060120230000012
00000000030003131181181064913TBZ060120230000038
00000000050005151131135051313BUV060120230000000
00000000050005151211215070213CBC060120230000000
00000000020002121111114063213S45060120230000000
00000000050005151161165064813TT1060120230000006
00000000030003232122121052413TXK060120230000000
00000000050005151141142051348RDH060120230000000
00000000020002121121122060313TT1060120230000004
00000000050005151131133050513SDH060120230000000
00000000030003131121122053948ACG060120230000003
00000000050005151131134051313EQD060120230000068
00000000010001212112113080748TR2060120230000013
00000000030003131161164055913SDH060120230000001
00000000040004141121123055548RCH060120230000002
00000000020002121131134063413TT1060120230000010
00000000030003131141142051713TXK060120230000000
00000000010001111141143080311ECR060120230000001
00000000030003131191193063013BZR060120230000000
00000000030003131161164055913ST1060120230000002
00000000020002121121122061611ECR060120230000001
00000000020002121121122060313S45060120230000000
00000000050005252132133063748RDH060120230000000
00000000050005353123122068212CT4060120230000001
00000000050005151181183067913SCH060120230000003
00000000010001111161164079813BZR060120230000000
00000000030003232142142056413BZR060120230000001
00000000050005151211212061313ST1060120230000025
00000000040004242142143051411ECR060120230000018
00000000050005151201204067613SDH060120230000001
00000000050005151161166060213TC1060120230000001
00000000030003333113114051912CT4060120230000001
00000000050005252112113050548SAV060120230000001
00000000050005151121125050913LCD060120230000000
00000000010001111121121081913CXC060120230000000
00000000050005252152152061311EGX060120230000063
00000000050005151151153050913TC1060120230000001
00000000010001111151153075313S45060120230000001
00000000050005151211215073713BZR060120230000002
00000000030003232122122063048ACG060120230000026
00000000020002121121124067048YT1060120230000008
00000000030003131111111096013SCH060120230000001
00000000030003333123121069112LYQ060120230000002
00000000010001111131133082813ST1060120230000003
00000000020002121161162062748RTE060120230000002
00000000010001111141141096113CAC060120230000000
00000000030003131151153051713BEV060120230000000
00000000010001111111112077313STE060120230000001
00000000040004343113112053312CT5060120230000002
00000000050005151211212070213CXC060120230000000
00000000020002121111114063212ET1060120230000000
00000000040004343123122056612XT5060120230000005
00000000040004242142143053848RRH060120230000003
00000000050005151161161060248RTE060120230000001
00000000050005151211211061313SDH060120230000003
00000000040004141171171057448ACG060120230000005
00000000040004141151153055513EQD060120230000004
00000000040004141111111050013T9B060120230000045
00000000020002121121121061648RDH060120230000000
00000000050005151161165061013ST1060120230000001
00000000040004141151152054948RTR060120230000000
00000000050005151121125054213TC1060120230000001
00000000020002121111115063212LYQ060120230000000
00000000010001111121124082013LCD060120230000000
00000000040004343123123051212ET1060120230000001
00000000050005252112113055848RTC060120230000003
00000000050005252152152061348YT1060120230000042
00000000030003232112113053411ECR060120230000005
00000000030003131151153056013TC1060120230000006
00000000030003131141143056712LYQ060120230000002
00000000030003131171174055713CBC060120230000000
00000000050005353113112054012EST060120230000000
00000000030003131171174056413LCG060120230000000
00000000020002121181185064113CBC060120230000000
00000000030003232142143056748YXT060120230000012
00000000020002121131132063413SRH060120230000000
00000000030003131151152056048RCH060120230000010
00000000030003131171171052913BUV060120230000002
00000000010001111131133080713ME2060120230000002
00000000050005151191193062413S45060120230000000
00000000040004141131133050148SAV060120230000000
00000000030003232112114059248YT1060120230000002
00000000010001111161161088113SDH060120230000002
00000000050005151151155058113EXP060120230000000
00000000040004141171174057413SCH060120230000002
00000000020002121191191072213ME2060120230000000
00000000020002121121122060348YT1060120230000002
00000000010001111131135086613CC2060120230000003
00000000040004242132134051111EGX060120230000030
00000000040004141171171057413TXK060120230000000
00000000040004141171174055448RTE060120230000000
00000000030003131141141052013CXC060120230000000
00000000010001111131135081113BZR060120230000001
00000000010001212122122080048CXG060120230000000
00000000020002121171173061813STE060120230000004
00000000020002121141141073413Y2X060120230000002
00000000020002121121124061913SRH060120230000001
00000000020002121171174062513LCG060120230000000
00000000050005151131133051313EXP060120230000003
00000000030003131171174054148RRH060120230000000
00000000050005151171171061748YT1060120230000002
00000000050005151191192072511EN2060120230000016
00000000010001212132135075848RTC060120230000017
00000000010001212112112074348TR2060120230000002
00000000030003131181181065913STC060120230000004
00000000030003131181184065913LCD060120230000000
00000000030003131121124068613CXC060120230000000
00000000030003232132133054448RRH060120230000001
00000000030003232142142056413TT1060120230000001
00000000030003131151151057048RTE060120230000000
00000000030003131131133052213LCG060120230000000
00000000030003232112111052848RTC060120230000073
00000000030003232132132051811EGX060120230000012
00000000020002121121124060348CXG060120230000000
00000000050005151191191067948RTC060120230000012
00000000050005151121122052713LXD060120230000000
00000000010001111141143080313ST1060120230000030
00000000020002222112114063248SAV060120230000001
00000000050005151141144056313CAC060120230000009
00000000050005151211215070213TC1060120230000001
00000000020002121121124067011EGX060120230000004
00000000030003131151154057013BZR060120230000000
00000000030003131151151055013SDH060120230000001
00000000020002121121125063148YT1060120230000000
00000000050005252152154073748YXT060120230000004
00000000010001212112112081348ACG060120230000001
00000000050005151191192062413SCH060120230000012
00000000010001212112112082048ACG060120230000016
00000000020002121191193074013TC1060120230000001
00000000020002121171174062513BEV060120230000001
00000000010001111121124081913T9B060120230000001
00000000020002222132134063548RTC060120230000108
00000000030003232142141064911EGX060120230000009
00000000010001212122121085548ACG060120230000002
00000000050005252112113051011EN2060120230000002
00000000020002121111115063913STE060120230000000
00000000010001111111114079013Y2X060120230000000
00000000050005252112113055848YT1060120230000000
00000000050005151181182070213T9B060120230000006
00000000020002222132133062211EN2060120230000004
00000000030003131191193069813CAC060120230000000
00000000050005151211215061111EN2060120230000001
00000000030003131131134052448ACG060120230000001
00000000050005151211212061311ECR060120230000000
00000000050005252142144066948CG2060120230000000
00000000030003131171174055713T9B060120230000000
00000000050005151171173061711EGX060120230000006
00000000020002121161161062313TC1060120230000136
00000000050005151181181068213TBZ060120230000029
00000000040004242112115050013CXC060120230000000
00000000010001313113111081948CXG060120230000000
00000000010001111131135086213CBC060120230000000
00000000030003131171174065913LCG060120230000000
00000000010001111161162075448SAV060120230000000
00000000030003131121124068613LCG060120230000000
00000000020002121121122061613T9B060120230000018
00000000050005151191192072513TC1060120230000041
00000000040004141121124053313CBC060120230000000
00000000020002121191195067813CXC060120230000000
00000000050005151141143056348YXT060120230000001
00000000050005151161165068213STE060120230000000
00000000020002121121125061648RRH060120230000000
00000000030003232122123057513S45060120230000000
00000000040004141171174057413EQD060120230000002
00000000030003131151151054548RDH060120230000000
00000000010001212132135075848CG2060120230000002
00000000020002626216211060548RTC060120230000001
00000000040004141121122053348RTE060120230000002
00000000030003232122123057548RTC060120230000011
00000000050005151141142056313T9B060120230000010
00000000010001111121122081948RTR060120230000000
00000000050005252142143061748RDH060120230000003
00000000030003131131134052413STC060120230000189
00000000020002626216212071748TR2060120230000000
00000000030003131151153051848RTE060120230000001
00000000020002121191191072248CXG060120230000000
00000000030003232122124050312XT4060120230000002
00000000050005151121125054713SCH060120230000001
00000000050005151171173066913ST1060120230000008
00000000020002222112112060311EGX060120230000006
00000000020002121111115063213BZR060120230000002
00000000030003333123122052912XT4060120230000002
00000000030003131161162054413CBC060120230000000
00000000020002121161161062348RTC060120230000015
00000000040004141121123052648RDH060120230000000
00000000030003131171174065913ST1060120230000001
00000000050005252132133063712CT4060120230000001
00000000020002222112112060348YT1060120230000000
00000000030003131191193063013TXK060120230000000
00000000050005151171172065813TXK060120230000000
00000000050005151171172065848RDH060120230000002
00000000010001111161164075548YXT060120230000002
00000000020002121151152071613LCG060120230000000
00000000020002121141144071011EGX060120230000008
00000000030003131161162054413STE060120230000001
00000000050005151131135058313BUV060120230000000
00000000030003232122122063011ECR060120230000001
00000000010001111111112076413EQD060120230000000
00000000050005151111114051012CT5060120230000001
00000000010001111131135086648TR2060120230000001
00000000030003131181181064913TT1060120230000011
00000000040004242112112050648TR2060120230000028
00000000020002121191193075948RCH060120230000002
00000000020002121161163062312ET1060120230000010
00000000030003232142141064912ET1060120230000004
00000000020002121191195067813SRH060120230000002
00000000010001111131135081113TXK060120230000000
00000000030003131131134057513BUV060120230000000
00000000040004242132133051248RTC060120230000034
00000000020002121121121063813STR060120230000000
00000000010001111141142080313TXK060120230000000
00000000040004242112112050612XT6060120230000003
00000000050005252132133061111EC1060120230000002
00000000020002222142142061211EC1060120230000003
00000000040004242132133050448CXG060120230000000
00000000010001111161161088113CC2060120230000032
00000000030003131191192069113ST1060120230000019
00000000050005252112113055811EGX060120230000002
00000000010001111161162076613LCD060120230000000
00000000030003131121124068648RRH060120230000000
00000000050005151211213070513LCG060120230000000
00000000040004141161164056612XT6060120230000000
00000000050005151211212061148SAV060120230000000
00000000040004141121122054348RTE060120230000001
00000000010001111141145080412CT4060120230000002
00000000010001313113113078911EN2060120230000010
00000000010001212112111081911EN2060120230000002
00000000050005151191191062413LCD060120230000000
00000000030003131171173056413CAC060120230000001
00000000020002121181185064113TT1060120230000000
00000000050005656216214054712XT5060120230000000
00000000020002121111116064813CAC060120230000000
00000000050005151161165067513CBC060120230000002
00000000020002222132131061848RTR060120230000004
00000000050005151161164060213CBC060120230000007
00000000010001111161163075813CC2060120230000001
00000000020002121141142064711EN2060120230000001
00000000020002121121122061613LCD060120230000000
00000000050005252122123050548RTE060120230000060
00000000010001111121122081913LCG060120230000001
00000000050005151141142056313LCD060120230000000
00000000030003333113112052848RDH060120230000000
00000000050005151151153052713EQD060120230000005
00000000020002121191194072212CT4060120230000000
00000000020002121191195067813STR060120230000000
00000000050005151211211061313TT1060120230000056
00000000030003232122122069148RCH060120230000030
00000000010001111121124082013SRH060120230000000
00000000010001111161164075848TR2060120230000000
00000000030003131121121057113ME2060120230000006
00000000010001111161162076613SCH060120230000004
00000000020002121161163065713TT1060120230000021
00000000040004141151153056613S45060120230000000
00000000010001111111114077313TC1060120230000000
00000000050005151161161060213SDH060120230000002
00000000040004141141142050413STE060120230000011
00000000020002222142141067348RDH060120230000000
00000000020002121131132065013TBZ060120230000016
00000000050005151151155064848CG2060120230000000
00000000020002121141141069348RTC060120230000016
00000000030003232132133055648RCH060120230000012
00000000050005151191193067948SAV060120230000000
00000000040004141161162056948TR2060120230000001
00000000030003131181181065913LXD060120230000000
00000000050005151211212061313LCG060120230000000
00000000040004242112112050048RTE060120230000002
00000000020002121151151074613TXK060120230000000
00000000050005151121123054713BZR060120230000005
00000000050005151131131050512ET1060120230000026
00000000030003131171174055748TR2060120230000000
00000000020002121181182064113STE060120230000009
00000000040004242122124050148RTE060120230000038
00000000040004141111112052313Y2X060120230000000
00000000040004141121123055511EC1060120230000002
00000000010001111111111079013CXC060120230000000
00000000020002121141141064013ME2060120230000005
00000000010001313113111081911ECR060120230000000
00000000010001212122121083911EGX060120230000021
00000000010001111151153075313TT1060120230000057
00000000020002121161163062311EGX060120230000002
00000000040004141121123055512LYQ060120230000000
00000000050005151211212061313T9B060120230000025
00000000010001111151154077013T9B060120230000005
00000000010001111151151077013BUV060120230000018
00000000010001212112111081948RTC060120230000025
00000000050005252112113051048YT1060120230000000
00000000050005151211215070213TT1060120230000001
00000000050005353123122064812EST060120230000000
00000000030003232142142059748SAV060120230000000
00000000010001212132135076211EN2060120230000001
00000000030003131121124068648RTR060120230000001
00000000050005151151154052748RTE060120230000003
00000000050005151191193067913EQD060120230000006
00000000050005151161166067548RTR060120230000001
00000000030003131191191063048RTR060120230000000
00000000050005151201204061313LXD060120230000000
00000000020002121171171061813ST1060120230000055
00000000020002222142142061248TR2060120230000006
00000000040004242132134051112ET1060120230000001
00000000040004242122122050148ACG060120230000016
00000000030003636216211069813STC060120230000001
00000000020002121171172061848SAV060120230000000
00000000030003232112113053948RTC060120230000039
00000000040004343113114051412XT6060120230000006
00000000030003232112115060611EC1060120230000002
00000000020002222132131061848RRH060120230000000
00000000020002222122121062712EST060120230000000
00000000010001111151153075348RTC060120230000030
00000000020002121111113060913BZR060120230000003
00000000040004141171174051113TT1060120230000001
00000000050005252122122050512CT5060120230000025
00000000050005252122124055112XT4060120230000003
00000000020002222142141064748YXT060120230000000
00000000010001212122122080312XT5060120230000007
00000000040004141121121052348CG2060120230000004
00000000010001111121124081911ECR060120230000000
00000000020002121191193075148RCH060120230000003
00000000050005151121125050913CBC060120230000001
00000000050005151161166067513CXC060120230000000
00000000040004141121124053213BZR060120230000002
00000000050005151111111053648YT1060120230000000
00000000050005151161165060213SRH060120230000000
00000000040004141141143050413S45060120230000002
00000000030003636216211069848CXG060120230000001
00000000050005151191194061313Y2X060120230000000
00000000050005151161163060213BEV060120230000004
00000000050005151151153058812LYQ060120230000000
00000000030003333113114051948RRH060120230000000
00000000010001111161163076213S45060120230000000
00000000050005353113112056312EST060120230000003
00000000050005151191192076413T9B060120230000001
00000000010001111161164075413T9B060120230000000
00000000050005151181183063713SDH060120230000000
00000000030003131131131052513LCG060120230000000
00000000040004242132133050448RRH060120230000001
00000000050005151191191067913S45060120230000002
00000000050005252112113055148RDH060120230000000
00000000020002222142142061212LYQ060120230000000
00000000050005151171172061748TR2060120230000002
00000000050005151211213055348RCH060120230000003
00000000040004141171174059813CAC060120230000000
00000000020002323113112061612ET1060120230000008
00000000020002121171175061213TXK060120230000000
00000000030003131151151057012XT4060120230000004
00000000040004141181182053813LXD060120230000000
00000000030003131171172054113BZR060120230000021
00000000030003131171172056413EQD060120230000005
00000000020002222142144069348CG2060120230000006
00000000010001212122123080348RTR060120230000004
00000000050005151121123054713TT1060120230000005
00000000020002121161161062311EGX060120230000007
00000000040004141151152054948YXT060120230000003
00000000050005151171173061748RTE060120230000002
00000000010001111141145080313SDH060120230000007
00000000050005252112114054248YXT060120230000009
00000000050005656216211067948TR2060120230000002
00000000040004646216211057648TR2060120230000000
00000000030003131151151055013CC2060120230000013
00000000040004141111113052113ST1060120230000006
00000000050005151171174065811EGX060120230000001
00000000030003232112113053413SRH060120230000001
00000000030003131191193060613EXP060120230000000
00000000050005252142144066948CXG060120230000000
00000000030003131181182065913EQD060120230000030
00000000040004141161163051113TBZ060120230000050
00000000020002121161165066213STE060120230000002
00000000050005151151153052713CAC060120230000000
00000000050005151141142050513LCG060120230000000
00000000040004141141141050413EQD060120230000137
00000000050005353123123061312XT6060120230000011
00000000030003131191193068648RTE060120230000000
00000000040004242122122053212CT4060120230000001
00000000050005151201201061312XT4060120230000002
00000000050005151141142055148RCH060120230000004
00000000020002222132132063648RTR060120230000001
00000000040004242142143053848RDH060120230000004
00000000050005151191194068713T9B060120230000000
00000000020002121111115063213EXP060120230000000
00000000020002121151154064448RCH060120230000001
00000000030003131181181073613STE060120230000001
00000000020002222112112067011EN2060120230000013
00000000050005151191194076413EXP060120230000000
00000000050005151111113051012XT6060120230000001
00000000010001111121124082013STR060120230000000
00000000050005252112112053512XT6060120230000000
00000000030003131151154055048RCH060120230000001
00000000050005151161165060213BZR060120230000001
00000000040004141151152055513CAC060120230000005
00000000010001111131131080713BUV060120230000066
00000000020002121191194065248CG2060120230000000
00000000010001111151152083948RTE060120230000000
00000000010001111131134086213STE060120230000001
00000000010001111161164076713ME2060120230000000
00000000020002121121124067013SDH060120230000001
00000000050005252152152061148CG2060120230000002
00000000030003131111113053413TBZ060120230000062
00000000050005151121123054713LXD060120230000000
00000000020002222112112067148ACG060120230000017
00000000010001111161161076013CC2060120230000002
00000000040004242112111050048YXT060120230000009
00000000010001212122124082548CG2060120230000031
00000000030003131141144051713SDH060120230000008
00000000050005151201201067611EGX060120230000003
00000000020002222122121062748RCH060120230000006
00000000010001111121124082048CXG060120230000001
00000000050005151131134051348TR2060120230000001
00000000050005151201201067648CXG060120230000000
00000000040004141111112052313TBZ060120230000004
00000000020002121171175061213S45060120230000000
00000000040004141131135050113EQD060120230000299
00000000020002121171174062548RTR060120230000001
00000000050005151201201067648YXT060120230000001
00000000050005151211214070213CAC060120230000000
00000000050005151201204067613EXP060120230000000
00000000030003131141145054613SCH060120230000006
00000000020002121161165066213BUV060120230000000
00000000040004141131134050148TR2060120230000009
00000000010001111161163082013STR060120230000000
00000000010001111161161081013LCG060120230000000
00000000030003131171172056413SCH060120230000008
00000000050005353123124061012XT5060120230000002
00000000010001111151154078913LXD060120230000000
00000000010001111161162076613BEV060120230000000
00000000040004242122122050112CT5060120230000002
00000000020002121131134063413EXP060120230000000
00000000020002121191193074013BZR060120230000000
00000000030003131161161054413BEV060120230000003
00000000040004141171174050813T9B060120230000014
00000000040004141111112050648ACG060120230000014
00000000030003232142142056413STR060120230000000
00000000050005252132132052748RTC060120230000024
