HDR ARE 06/01/2023 OBJECTIVE               
0000000002000212113113113S45060120230000001
0000000005000515118118348CXG060120230000000
0000000002000212111111113STC060120230000152
0000000002000212117117213EXP060120230000003
0000000004000414114114113BEV060120230000003
0000000005000515111111412CT4060120230000001
0000000005000525212212212EST060120230000007
0000000002000212116116313Y2X060120230000004
0000000002000222214214248RTR060120230000005
0000000004000414111111412LYQ060120230000004
0000000002000212115115412CT4060120230000000
0000000001000111115115212LYQ060120230000000
0000000002000212111111548CXG060120230000000
0000000003000313115115113STE060120230000007
0000000002000222211211448YXT060120230000015
0000000005000525212212448RCH060120230000035
0000000005000515112112113CBC060120230000009
0000000001000131311311212XT5060120230000009
0000000005000515113113413STE060120230000028
0000000003000363621621148RTE060120230000002
0000000005000525214214148SAV060120230000010
0000000005000515116116213S45060120230000003
0000000002000212112112313SRH060120230000001
0000000004000414113113213TC1060120230000144
0000000003000313117117248RCH060120230000013
0000000002000212115115113BUV060120230000001
0000000003000313113113213Y2X060120230000016
0000000005000515120120212XT6060120230000002
0000000005000525212212112ET1060120230000001
0000000002000212112112448RTC060120230000012
0000000001000111116116113LXD060120230000000
0000000005000515113113113SRH060120230000001
0000000004000414117117148YT1060120230000000
0000000005000515118118248TR2060120230000001
0000000002000232312312112XT5060120230000099
0000000002000212113113112LYQ060120230000000
0000000004000414117117111EGX060120230000005
0000000004000414118118248RTC060120230000002
0000000003000313118118313STC060120230000091
0000000003000313117117311ECR060120230000002
0000000005000515121121413CXC060120230000000
0000000002000212112112348SAV060120230000001
0000000002000212111111213CXC060120230000000
0000000003000313118118413T9B060120230000004
0000000002000212113113113TT1060120230000063
0000000004000424213213212EST060120230000000
0000000002000212115115113STE060120230000009
0000000003000363621621113CAC060120230000000
0000000005000515111111113SDH060120230000004
0000000003000323214214112CT4060120230000002
0000000003000313111111213TXK060120230000000
0000000002000212117117313BEV060120230000005
0000000003000323212212411EN2060120230000006
0000000003000323212212412ET1060120230000002
0000000002000212112112413TC1060120230000025
0000000001000111116116213Y2X060120230000008
0000000001000111111111313BZR060120230000023
0000000004000414116116313TXK060120230000000
0000000004000424212212212CT5060120230000003
0000000002000262621621448RTE060120230000000
0000000003000323211211113BZR060120230000002
0000000003000313114114448RRH060120230000006
0000000005000515120120413STC060120230000073
0000000005000515116116648RCH060120230000005
0000000003000313113113312EST060120230000002
0000000001000121213213348YXT060120230000019
0000000002000262621621248YT1060120230000002
0000000002000212113113248TR2060120230000005
0000000004000424212212548RTR060120230000004
0000000003000323212212412CT5060120230000001
0000000004000414112112313BZR060120230000024
0000000005000515120120413ME2060120230000000
0000000004000414118118313BEV060120230000006
0000000002000212119119113CAC060120230000004
0000000004000414111111148RTC060120230000004
0000000003000313118118413ST1060120230000002
0000000005000515111111413LXD060120230000000
0000000005000525215215312XT6060120230000001
0000000003000313117117448CG2060120230000000
0000000005000515111111211EC1060120230000002
0000000005000515112112513LCD060120230000000
0000000004000414114114113CXC060120230000000
0000000005000515117117213ST1060120230000015
0000000004000414116116113BZR060120230000024
0000000003000313111111313CBC060120230000035
0000000001000111113113148RCH060120230000005
0000000001000111114114113EQD060120230000034
0000000003000323211211448TR2060120230000017
0000000002000222213213411ECR060120230000010
0000000004000414113113211EN2060120230000003
0000000001000111114114212XT4060120230000002
0000000003000313113113313CAC060120230000009
0000000002000212116116548RTC060120230000061
0000000003000313114114113EXP060120230000000
0000000002000212114114113CAC060120230000004
0000000002000212117117513BZR060120230000014
0000000001000111114114348RRH060120230000001
0000000002000212118118211ECR060120230000001
0000000005000515121121312CT5060120230000000
0000000001000111113113248RTC060120230000015
0000000001000111111111148ACG060120230000000
0000000005000515112112513T9B060120230000031
0000000001000161621621248CXG060120230000000
0000000001000121211211111ECR060120230000002
0000000005000515114114313EXP060120230000001
0000000004000414116116313EXP060120230000028
0000000005000515120120313STE060120230000004
0000000004000424211211411EC1060120230000004
0000000001000131312312348RTC060120230000014
0000000005000515115115213S45060120230000003
0000000005000515115115213STC060120230000144
0000000003000313118118348CXG060120230000000
0000000003000313117117413TBZ060120230000025
0000000001000111116116113SRH060120230000004
0000000005000515112112248YT1060120230000000
0000000003000313112112413Y2X060120230000023
0000000002000212116116313TXK060120230000001
0000000002000212111111548ACG060120230000006
0000000003000313113113113LCD060120230000000
0000000002000212111111611EN2060120230000015
0000000003000323214214148RTR060120230000001
0000000004000424211211311EN2060120230000021
0000000002000212114114148SAV060120230000000
0000000005000515119119411EN2060120230000001
0000000001000111112112312EST060120230000000
0000000003000323211211548RDH060120230000001
0000000004000414111111248SAV060120230000002
0000000004000414112112348RDH060120230000001
0000000005000565621621111EN2060120230000004
0000000005000515112112211EN2060120230000002
0000000001000131312312148RDH060120230000000
0000000005000525211211348CXG060120230000000
0000000001000111116116112CT4060120230000001
0000000001000111113113111EC1060120230000000
0000000001000111111111213TT1060120230000030
0000000005000515112112148TR2060120230000008
0000000002000212119119112EST060120230000002
0000000004000434312312212XT4060120230000009
0000000002000222211211448ACG060120230000010
0000000002000212111111513SRH060120230000000
0000000004000424213213412CT4060120230000000
0000000002000212116116348RCH060120230000049
0000000002000212111111413T9B060120230000010
0000000004000424211211148YT1060120230000015
0000000005000515121121513STE060120230000003
0000000003000313113113111ECR060120230000001
0000000004000414113113213TT1060120230000031
0000000002000212113113113TC1060120230000072
0000000003000323213213448YT1060120230000040
0000000003000323212212313SCH060120230000003
0000000005000515114114248RDH060120230000000
0000000001000111116116413TC1060120230000009
0000000003000323213213448RTE060120230000013
0000000001000121212212412XT6060120230000003
0000000001000111116116248CG2060120230000005
0000000003000333311311212CT5060120230000074
0000000002000212117117513TT1060120230000035
0000000003000313115115448RTR060120230000002
0000000005000565621621248SAV060120230000000
0000000003000313112112448RTR060120230000003
0000000001000111111111213S45060120230000000
0000000005000525212212348RTC060120230000079
0000000004000414114114112CT4060120230000002
0000000002000212115115412EST060120230000001
0000000005000515121121313S45060120230000001
0000000001000111116116413EXP060120230000000
0000000001000111111111248RTC060120230000026
0000000004000414114114413ME2060120230000005
0000000002000212116116413BEV060120230000004
0000000005000515113113213BUV060120230000010
0000000005000515119119213CC2060120230000021
0000000003000313114114412EST060120230000009
0000000002000212112112111EC1060120230000006
0000000002000212116116148CG2060120230000001
0000000002000212111111313EQD060120230000011
0000000005000515117117213SDH060120230000004
0000000002000212111111513ME2060120230000000
0000000003000313115115313EXP060120230000004
0000000002000212118118213LCG060120230000000
0000000003000313117117313CBC060120230000005
0000000002000212119119413TBZ060120230000022
0000000001000111114114312CT4060120230000002
0000000002000212118118213T9B060120230000011
0000000003000313119119213S45060120230000000
0000000003000313112112313CC2060120230000053
0000000005000515117117413LXD060120230000000
0000000003000313114114513TT1060120230000015
0000000004000414116116311EGX060120230000012
0000000004000424213213348RTC060120230000054
0000000004000414112112348YXT060120230000003
0000000005000515120120148RTE060120230000004
0000000004000424212212548ACG060120230000016
0000000001000111116116113BEV060120230000011
0000000004000414111111313CBC060120230000005
0000000003000313119119348RRH060120230000000
0000000003000313119119148CG2060120230000000
0000000004000414117117212LYQ060120230000002
0000000002000212115115412XT5060120230000002
0000000002000222211211212LYQ060120230000002
0000000004000414118118348RRH060120230000000
0000000001000111111111113BEV060120230000005
0000000005000515116116512EST060120230000001
0000000005000515112112513BEV060120230000000
0000000001000111111111413SDH060120230000002
0000000002000212115115113TBZ060120230000067
0000000003000313113113211EN2060120230000003
0000000002000212119119211EGX060120230000003
0000000003000313114114548YT1060120230000000
0000000004000414113113213BZR060120230000029
0000000005000515115115113BEV060120230000003
0000000003000323213213112XT5060120230000010
0000000005000525211211348YT1060120230000015
0000000004000434311311212ET1060120230000018
0000000001000121213213548CG2060120230000013
0000000003000313112112412CT4060120230000001
0000000005000515116116213TXK060120230000001
0000000001000111116116413TT1060120230000008
0000000001000111116116148RDH060120230000006
0000000004000414117117448ACG060120230000004
0000000003000313112112448RRH060120230000000
0000000003000313119119348RTR060120230000000
0000000005000515115115113CXC060120230000000
0000000003000313113113248RDH060120230000003
0000000005000515113113413ME2060120230000010
0000000002000212118118413CAC060120230000001
0000000003000323214214148YXT060120230000014
0000000005000515118118213EQD060120230000026
0000000002000212118118548RRH060120230000000
0000000005000515112112213SDH060120230000004
0000000002000212119119412LYQ060120230000002
0000000001000111113113412XT6060120230000002
0000000005000515116116548SAV060120230000000
0000000003000313113113113SRH060120230000002
0000000002000212111111613TC1060120230000030
0000000002000212115115113ME2060120230000012
0000000004000414112112413CAC060120230000001
0000000004000424211211211ECR060120230000005
0000000001000111113113248RTE060120230000004
0000000002000212119119213TT1060120230000017
0000000001000111116116113LCD060120230000000
0000000005000515115115312EST060120230000001
0000000005000515115115413BZR060120230000019
0000000004000434311311212CT5060120230000012
0000000002000212114114448CG2060120230000001
0000000003000313115115113ST1060120230000024
0000000004000414116116411ECR060120230000001
0000000005000515117117113STC060120230000124
0000000003000323214214248RTC060120230000057
0000000001000111113113413CC2060120230000036
0000000003000313116116413EQD060120230000032
0000000005000515114114313TC1060120230000053
0000000001000111113113113SCH060120230000050
0000000003000313115115312CT5060120230000005
0000000003000323214214348YXT060120230000019
0000000004000414117117211EC1060120230000006
0000000005000515114114411EC1060120230000001
0000000003000333312312111ECR060120230000001
0000000005000535311311112XT4060120230000031
0000000003000323212212413TC1060120230000001
0000000003000323212212248CG2060120230000017
0000000004000414111111448ACG060120230000004
0000000005000515118118313STC060120230000027
0000000005000515118118212XT6060120230000001
0000000002000212112112311ECR060120230000002
0000000003000313119119313CAC060120230000001
0000000001000111114114513TBZ060120230000101
0000000005000535312312112XT6060120230000041
0000000005000515120120313ST1060120230000006
0000000002000212118118448RTC060120230000050
0000000005000515112112112XT6060120230000000
0000000002000222214214212XT5060120230000003
0000000003000313118118313TT1060120230000016
0000000003000313111111313LCG060120230000002
0000000005000515121121348RTC060120230000058
0000000003000313115115248SAV060120230000000
0000000002000212116116113STC060120230000493
0000000005000515115115213ME2060120230000017
0000000003000313113113113LXD060120230000000
0000000005000515116116613ME2060120230000001
0000000001000131312312348RCH060120230000011
0000000003000323211211113EQD060120230000007
0000000004000414113113513CBC060120230000013
0000000003000313114114413CXC060120230000000
0000000002000212118118348YXT060120230000002
0000000004000414118118348RTR060120230000002
0000000004000414112112213SCH060120230000050
0000000005000535312312212ET1060120230000007
0000000005000515118118148RDH060120230000000
0000000001000111115115248TR2060120230000003
0000000003000313112112213STR060120230000000
0000000005000515121121248TR2060120230000001
0000000004000424214214311EC1060120230000038
0000000002000212111111111EGX060120230000014
0000000001000111114114513SCH060120230000083
0000000001000111113113313Y2X060120230000044
0000000004000414112112312EST060120230000000
0000000001000111114114348RDH060120230000002
0000000002000212117117313STC060120230000264
0000000005000515113113113STR060120230000000
0000000005000515114114313CBC060120230000001
0000000005000515115115513LCD060120230000000
0000000002000212117117312CT4060120230000001
0000000003000313117117113CBC060120230000007
0000000005000525213213213EQD060120230000001
0000000003000313116116313CC2060120230000021
0000000003000313114114211EC1060120230000004
0000000003000313118118113STR060120230000000
0000000001000121213213148RTC060120230000107
0000000004000414117117448RRH060120230000000
0000000002000212115115348RTC060120230000019
0000000005000515114114113TXK060120230000000
0000000002000212119119513SCH060120230000013
0000000005000515118118348RCH060120230000003
0000000002000212113113412ET1060120230000002
0000000002000212112112413BUV060120230000000
0000000003000313116116113CXC060120230000000
0000000002000212111111613EXP060120230000002
0000000004000424213213448RTR060120230000009
0000000001000161621621148TR2060120230000002
0000000004000424213213148RTE060120230000052
0000000004000414118118113LCG060120230000000
0000000003000313114114548RTE060120230000001
0000000001000111113113448RTC060120230000046
0000000002000222211211248RDH060120230000004
0000000004000414114114113CBC060120230000009
0000000005000525211211212XT6060120230000000
0000000003000313112112113STE060120230000011
0000000005000515114114413EQD060120230000064
0000000005000525213213448CXG060120230000000
0000000001000111116116348RRH060120230000000
0000000005000515117117213STE060120230000008
0000000005000515120120213ME2060120230000003
0000000002000212117117113STR060120230000000
0000000005000515121121448SAV060120230000000
0000000005000515114114148YXT060120230000001
0000000005000515120120113SDH060120230000002
0000000003000313118118113BUV060120230000003
0000000005000515118118313TT1060120230000004
0000000005000535311311412ET1060120230000016
0000000003000313117117248RTC060120230000032
0000000001000111111111413ST1060120230000008
0000000002000212112112113LXD060120230000000
0000000002000212118118113TT1060120230000101
0000000004000414114114212CT5060120230000013
0000000005000515114114148CXG060120230000000
0000000003000313114114313T9B060120230000034
0000000004000414111111213STR060120230000000
0000000003000313114114348CG2060120230000008
0000000005000515117117313BUV060120230000001
0000000004000424211211513BUV060120230000000
0000000005000515117117148CG2060120230000001
0000000004000414118118113BZR060120230000066
0000000001000111116116348RTR060120230000000
0000000001000111111111148YXT060120230000000
0000000004000414114114113LCG060120230000000
0000000002000212119119313ST1060120230000005
0000000002000212119119248RTC060120230000003
0000000002000212115115313TC1060120230000035
0000000005000515113113513LCG060120230000000
0000000004000414116116413CXC060120230000000
0000000002000212113113313S45060120230000004
0000000005000565621621148RDH060120230000000
0000000004000414115115113LCD060120230000000
0000000005000525212212248RRH060120230000006
0000000002000212112112413TT1060120230000015
0000000001000111115115113STC060120230000166
0000000001000111116116248ACG060120230000004
0000000001000111115115448RCH060120230000012
0000000002000212111111212XT5060120230000008
0000000001000111111111211EGX060120230000014
0000000001000111113113312CT5060120230000004
0000000004000414116116448TR2060120230000003
0000000002000212116116111EC1060120230000002
0000000002000212111111313STC060120230000026
0000000003000313117117313ST1060120230000014
0000000004000414115115113CXC060120230000000
0000000005000515119119313LXD060120230000000
0000000004000424211211212CT4060120230000003
0000000002000212112112412CT5060120230000002
0000000005000515116116448YT1060120230000008
0000000004000424212212412ET1060120230000003
0000000003000313118118448RTC060120230000013
0000000003000313119119113TXK060120230000000
0000000002000212119119113TXK060120230000000
0000000004000414113113511EGX060120230000008
0000000005000515115115513LXD060120230000000
0000000004000424211211348TR2060120230000036
0000000003000313112112413S45060120230000002
0000000005000515111111213CXC060120230000000
0000000001000111114114548ACG060120230000006
0000000005000515114114213TC1060120230000099
0000000002000212111111613BZR060120230000009
0000000005000515117117113STE060120230000008
0000000002000212118118148RTC060120230000017
0000000003000333311311211EC1060120230000020
0000000004000414118118213T9B060120230000216
0000000002000212117117313TT1060120230000059
0000000005000515116116313LCD060120230000000
0000000003000333311311448CG2060120230000001
0000000002000212113113348YT1060120230000008
0000000004000414118118111ECR060120230000006
0000000002000222212212148RTE060120230000016
0000000001000111112112313TXK060120230000000
0000000005000515116116513EQD060120230000046
0000000002000212118118213CC2060120230000065
0000000003000313118118348RCH060120230000002
0000000002000212119119248RTR060120230000001
0000000004000414115115348YXT060120230000002
0000000005000515114114148RTC060120230000002
0000000004000434312312112ET1060120230000059
0000000004000414111111348CG2060120230000001
0000000002000212115115111ECR060120230000002
0000000005000525213213412ET1060120230000002
0000000001000131311311148RCH060120230000003
0000000002000212117117513BEV060120230000004
0000000002000222213213111EN2060120230000041
0000000002000212111111413BEV060120230000001
0000000003000313113113313TXK060120230000000
0000000001000111113113148RTR060120230000000
0000000002000212117117413EXP060120230000007
0000000005000515121121413EQD060120230000029
0000000002000212119119148RCH060120230000014
0000000002000212111111213EQD060120230000043
0000000005000515117117313TT1060120230000018
0000000005000515111111312CT5060120230000000
0000000002000212119119313STE060120230000001
0000000003000313118118313TC1060120230000030
0000000004000414113113113ST1060120230000024
0000000004000414113113313LXD060120230000002
0000000004000414111111413Y2X060120230000006
0000000005000515121121513TXK060120230000000
0000000002000212118118513LCG060120230000000
0000000002000212113113313TT1060120230000029
0000000003000313119119248RTE060120230000001
0000000003000313115115413ST1060120230000008
0000000005000515115115113CC2060120230000019
0000000001000111114114548SAV060120230000002
0000000003000323211211411EN2060120230000026
0000000003000323212212148RCH060120230000127
0000000004000414111111513BZR060120230000000
0000000004000414116116113LCD060120230000000
0000000002000212111111611EGX060120230000014
0000000005000515115115313T9B060120230000019
0000000002000212116116313CXC060120230000000
0000000004000414116116348RRH060120230000001
0000000002000212116116513SDH060120230000001
0000000005000515115115148RTR060120230000000
0000000005000515117117313S45060120230000000
0000000003000323211211313SCH060120230000007
0000000002000212111111513TC1060120230000008
0000000001000111114114413CBC060120230000046
0000000004000414116116213STR060120230000000
0000000003000333312312148RCH060120230000015
0000000004000414112112211EN2060120230000003
0000000004000414114114248RRH060120230000000
0000000005000535312312412LYQ060120230000007
0000000003000313115115112XT5060120230000008
0000000005000515112112313TXK060120230000000
0000000005000515112112312LYQ060120230000002
0000000002000222211211112LYQ060120230000000
0000000001000111115115411ECR060120230000000
0000000004000424211211513S45060120230000000
0000000002000222212212548RTR060120230000003
0000000004000414116116212ET1060120230000001
0000000005000525214214248TR2060120230000046
0000000004000424211211248RCH060120230000057
0000000002000222214214312XT5060120230000001
0000000001000111116116413ME2060120230000000
0000000004000414115115112LYQ060120230000000
0000000004000414113113512LYQ060120230000007
0000000003000313116116213SCH060120230000032
0000000005000515116116513SCH060120230000045
0000000004000424211211148RCH060120230000058
0000000002000212115115348CXG060120230000000
0000000002000212112112413CC2060120230000015
0000000003000313116116148SAV060120230000000
0000000001000111111111448CG2060120230000002
0000000005000515121121513EXP060120230000001
0000000005000515111111313LCD060120230000000
0000000002000212114114313CAC060120230000002
0000000004000414115115213SCH060120230000066
0000000004000414113113448RCH060120230000003
0000000004000434311311348SAV060120230000000
0000000003000313112112412CT5060120230000000
0000000004000414116116448RRH060120230000000
0000000004000414116116213SCH060120230000079
0000000001000121213213512CT4060120230000000
0000000004000414115115113T9B060120230000091
0000000001000111111111311ECR060120230000001
0000000002000212114114213SRH060120230000000
0000000002000212113113213EXP060120230000000
0000000002000212113113413SCH060120230000062
0000000005000515115115313SDH060120230000001
0000000005000515120120213STC060120230000176
0000000003000313113113348RCH060120230000035
0000000004000424211211111ECR060120230000005
0000000002000212117117113SRH060120230000003
0000000001000131311311348ACG060120230000012
0000000005000515113113413EXP060120230000003
0000000003000313119119213BUV060120230000008
0000000001000111114114248SAV060120230000000
0000000004000414111111113Y2X060120230000010
0000000005000515114114348RDH060120230000002
0000000004000414112112313S45060120230000003
0000000002000262621621348YXT060120230000001
0000000005000515118118113SRH060120230000003
0000000002000212118118248RDH060120230000000
0000000005000525214214112CT5060120230000004
0000000005000515116116313CAC060120230000008
0000000005000515121121513EQD060120230000038
0000000005000515120120411EGX060120230000003
0000000004000424211211448SAV060120230000004
0000000003000313117117413STR060120230000000
0000000003000313116116211EGX060120230000006
0000000005000515111111213LCD060120230000000
0000000002000222212212148YXT060120230000033
0000000004000414113113313ME2060120230000004
0000000002000222214214448CXG060120230000000
0000000005000515119119313STC060120230000049
0000000002000212114114348YXT060120230000012
0000000002000212117117113CAC060120230000007
0000000005000515113113113TXK060120230000003
0000000003000323211211512CT4060120230000002
0000000005000515120120148YT1060120230000000
0000000005000515121121413ST1060120230000007
0000000004000424214214148TR2060120230000033
0000000003000313112112313CAC060120230000011
0000000002000212112112112EST060120230000001
0000000002000212118118412CT5060120230000001
0000000002000212118118413TC1060120230000122
0000000003000313111111113SCH060120230000095
0000000004000414113113113EQD060120230000151
0000000005000525213213348RTC060120230000110
0000000003000323211211548RRH060120230000000
0000000003000313118118413BEV060120230000001
0000000004000414117117213SDH060120230000002
0000000004000424211211148CG2060120230000015
0000000002000222212212112CT4060120230000001
0000000005000525213213213CXC060120230000000
0000000003000313118118248RCH060120230000015
0000000004000414113113413TXK060120230000000
0000000005000515119119113TXK060120230000000
0000000003000323214214212CT5060120230000003
0000000002000212119119148ACG060120230000009
0000000002000222211211148RCH060120230000060
0000000002000212111111113EXP060120230000000
0000000003000313113113413BZR060120230000029
0000000004000424211211311EC1060120230000019
0000000001000121213213148SAV060120230000002
0000000002000212116116448SAV060120230000000
0000000003000313119119248RRH060120230000002
0000000002000262621621111ECR060120230000000
0000000004000414113113213ME2060120230000009
0000000002000212112112548RTE060120230000000
0000000005000515114114213T9B060120230000092
0000000005000525213213113STC060120230000007
0000000004000414111111148CXG060120230000000
0000000005000515115115413LXD060120230000000
0000000005000515117117448RDH060120230000000
0000000005000515119119313ME2060120230000000
0000000005000515114114313Y2X060120230000002
0000000005000515114114113BEV060120230000002
0000000002000212114114112LYQ060120230000000
0000000003000313114114313SDH060120230000002
0000000004000414111111113S45060120230000002
0000000002000262621621148TR2060120230000000
0000000003000313117117111ECR060120230000005
0000000001000111111111113SCH060120230000046
0000000002000222213213148RCH060120230000273
0000000004000424213213212XT4060120230000004
0000000005000515113113513SDH060120230000000
0000000005000525213213448TR2060120230000010
0000000004000434312312212ET1060120230000011
0000000002000212116116348RTR060120230000001
0000000003000323214214213S45060120230000000
0000000002000212118118513CXC060120230000000
0000000004000414112112313LXD060120230000000
0000000002000212111111348SAV060120230000000
0000000002000212112112413S45060120230000000
0000000003000323211211512EST060120230000005
0000000005000515112112413TXK060120230000002
0000000003000323214214112CT5060120230000001
0000000003000313114114413LCG060120230000005
0000000004000414116116413LCD060120230000000
0000000003000313115115412XT5060120230000001
0000000004000414113113513TXK060120230000001
0000000003000323214214212LYQ060120230000002
0000000001000111111111212ET1060120230000004
0000000005000525213213113CAC060120230000004
0000000004000414114114448YT1060120230000003
0000000003000333311311448RCH060120230000004
0000000003000323212212113STE060120230000000
0000000005000515115115413SRH060120230000001
0000000004000414112112448RTC060120230000003
0000000005000515118118113EXP060120230000001
0000000004000424211211212EST060120230000002
0000000002000212111111213BUV060120230000002
0000000001000111114114512XT4060120230000006
0000000002000212117117413TT1060120230000035
0000000003000333311311348TR2060120230000004
0000000005000525211211148RTR060120230000003
0000000003000313118118113CC2060120230000017
0000000003000313116116313BUV060120230000003
0000000005000515120120248TR2060120230000008
0000000004000414114114213CXC060120230000000
0000000004000414115115211EN2060120230000006
0000000003000323212212313LCD060120230000000
0000000005000515117117113CBC060120230000006
0000000003000313114114213Y2X060120230000018
0000000001000121212212348CXG060120230000000
0000000004000414111111148YT1060120230000000
0000000005000515112112513LXD060120230000000
0000000005000515117117313CC2060120230000025
0000000001000111114114313S45060120230000006
0000000005000515121121113STR060120230000000
0000000004000424211211212CT5060120230000003
0000000002000212118118213CXC060120230000000
0000000003000313115115212ET1060120230000004
0000000005000515121121312CT4060120230000000
0000000004000414116116113SCH060120230000064
0000000003000313118118112XT6060120230000002
0000000003000313115115413S45060120230000000
0000000005000515120120148CXG060120230000000
0000000004000414112112148CXG060120230000001
0000000002000212115115113CXC060120230000000
0000000004000414112112448RRH060120230000000
0000000005000515111111412CT5060120230000001
0000000004000414112112413CC2060120230000018
0000000004000414118118313T9B060120230000060
0000000002000212113113213LXD060120230000000
0000000001000111114114113EXP060120230000001
0000000002000212111111613ME2060120230000002
0000000003000313115115113EQD060120230000057
0000000005000515120120113TT1060120230000028
0000000002000212118118111ECR060120230000001
0000000002000212118118513CC2060120230000010
0000000002000212119119311EC1060120230000005
0000000001000111114114211EN2060120230000001
0000000001000111111111148RDH060120230000000
0000000002000212118118548RCH060120230000008
0000000004000414118118211ECR060120230000003
0000000005000515116116413EQD060120230000051
0000000003000313118118413S45060120230000000
0000000002000212115115248RCH060120230000008
0000000003000313119119148RDH060120230000000
0000000002000212111111513LCD060120230000000
0000000004000424214214112XT6060120230000002
0000000005000515115115313LCG060120230000000
0000000005000515111111148RDH060120230000000
0000000001000131311311348RTC060120230000036
0000000002000262621621148CG2060120230000000
0000000001000111115115348RTR060120230000002
0000000003000323214214112ET1060120230000004
0000000005000515117117312CT4060120230000000
0000000005000515114114112CT5060120230000002
0000000003000323213213148ACG060120230000043
0000000005000515115115513STC060120230000032
0000000005000515116116113EXP060120230000001
0000000003000313119119113CC2060120230000032
0000000004000414111111313TXK060120230000000
0000000001000111111111413TXK060120230000000
0000000003000313112112213CAC060120230000025
0000000002000212111111311EGX060120230000003
0000000002000222213213311EC1060120230000037
0000000003000313112112313T9B060120230000021
0000000004000414112112148TR2060120230000011
0000000003000323211211248SAV060120230000016
0000000002000212112112313CBC060120230000002
0000000003000313112112413BUV060120230000004
0000000005000515119119213TXK060120230000000
0000000003000313115115312CT4060120230000003
0000000003000313111111313TXK060120230000001
0000000002000212111111613LCD060120230000000
0000000003000333311311248RDH060120230000000
0000000001000111111111348RTE060120230000000
0000000002000212115115313S45060120230000000
0000000004000414117117448YXT060120230000000
0000000002000212117117112XT6060120230000001
0000000005000535312312312LYQ060120230000008
0000000001000111115115313TT1060120230000072
0000000001000111112112448CG2060120230000013
0000000002000212113113213SRH060120230000003
0000000005000525211211248RTR060120230000002
0000000002000212116116413CXC060120230000000
0000000005000515115115548TR2060120230000003
0000000003000333312312312CT5060120230000003
0000000004000424211211112EST060120230000001
0000000001000121213213512XT6060120230000003
0000000003000323212212113STC060120230000014
0000000001000111112112413TXK060120230000000
0000000005000515116116213BUV060120230000010
0000000002000212116116513T9B060120230000006
0000000004000414116116413BZR060120230000019
0000000002000212116116313BEV060120230000004
0000000003000313118118213STE060120230000007
0000000005000515111111248RDH060120230000000
0000000005000515116116448RRH060120230000000
0000000005000515115115211EN2060120230000002
0000000004000414117117313CAC060120230000004
0000000003000323214214348RTR060120230000000
0000000001000111112112248YT1060120230000007
0000000002000212114114213TT1060120230000012
0000000005000515114114448SAV060120230000000
0000000001000111112112348CG2060120230000004
0000000004000414114114113T9B060120230000134
0000000005000515111111113CBC060120230000006
0000000005000515117117213LCG060120230000000
0000000003000313117117112EST060120230000000
0000000005000525213213213STE060120230000000
0000000005000515116116113TT1060120230000023
0000000002000212112112211EGX060120230000011
0000000001000111116116413BEV060120230000004
0000000005000525215215248RDH060120230000003
0000000001000111113113213BEV060120230000011
0000000005000525213213213CAC060120230000000
0000000001000131312312348RRH060120230000000
0000000001000121212212448CXG060120230000000
0000000005000515119119248CG2060120230000000
0000000005000515118118213EXP060120230000000
0000000004000414117117348YXT060120230000001
0000000004000414113113348CXG060120230000000
0000000001000111111111448RCH060120230000012
0000000002000212113113348RTR060120230000001
0000000005000515115115413STR060120230000000
0000000003000313119119113LCD060120230000000
0000000004000414116116248SAV060120230000000
0000000004000414113113313EXP060120230000002
0000000005000515113113448RTE060120230000007
0000000005000515121121212CT4060120230000000
0000000003000313114114548YXT060120230000001
0000000004000414112112113STR060120230000001
0000000003000313116116248RRH060120230000000
0000000002000212115115411ECR060120230000000
0000000002000212114114113Y2X060120230000021
0000000003000313116116413BUV060120230000002
0000000003000313111111312EST060120230000001
0000000003000313112112213T9B060120230000078
0000000002000212111111148SAV060120230000000
0000000003000363621621113SCH060120230000000
0000000005000525211211511ECR060120230000001
0000000002000222212212112CT5060120230000004
0000000005000515114114112XT4060120230000002
0000000005000515119119413BEV060120230000000
0000000005000515117117348CXG060120230000000
0000000003000323212212348YT1060120230000022
0000000003000323214214148RTC060120230000040
0000000003000313113113413SRH060120230000005
0000000004000424212212212XT6060120230000004
0000000001000111114114413STR060120230000001
0000000002000212112112213SCH060120230000041
0000000005000515117117213TXK060120230000000
0000000001000111111111348YT1060120230000000
0000000004000414113113313TT1060120230000039
0000000005000515113113311EGX060120230000002
0000000003000323213213248SAV060120230000000
0000000002000212115115112EST060120230000003
0000000001000121211211448SAV060120230000002
0000000005000515115115413CAC060120230000009
0000000003000323211211512XT5060120230000004
0000000002000212118118448YXT060120230000009
0000000002000212115115148SAV060120230000000
0000000002000212115115211EGX060120230000002
0000000004000414117117348RRH060120230000000
0000000002000212116116513CXC060120230000000
0000000001000111113113413Y2X060120230000019
0000000002000212118118348RTE060120230000005
0000000003000313111111148RRH060120230000000
0000000004000414111111148RTR060120230000001
0000000004000424213213448RTC060120230000071
0000000005000515113113248RTR060120230000001
0000000005000515113113113BUV060120230000004
0000000002000222213213211EC1060120230000027
0000000004000414116116148TR2060120230000002
0000000005000525215215412LYQ060120230000000
0000000002000212119119213ST1060120230000009
0000000002000212116116413S45060120230000001
0000000002000232311311212CT5060120230000009
0000000005000525213213348CXG060120230000001
0000000002000212117117413STC060120230000194
0000000003000313118118413Y2X060120230000004
0000000003000313114114312EST060120230000005
0000000004000414111111513CXC060120230000001
0000000005000525213213213ST1060120230000001
0000000004000414118118313S45060120230000001
0000000002000212112112412CT4060120230000000
0000000003000313115115448RTC060120230000016
0000000005000515112112413BEV060120230000005
0000000004000414115115213BEV060120230000005
0000000002000222212212348RTC060120230000296
0000000001000111115115213SDH060120230000015
0000000005000525212212348RTR060120230000005
0000000002000212112112448RTR060120230000000
0000000002000212112112548YT1060120230000000
0000000003000313116116413ST1060120230000009
0000000003000313114114113LCG060120230000000
0000000003000313111111312LYQ060120230000000
0000000005000525214214411EC1060120230000022
0000000003000313117117148RRH060120230000001
0000000003000323212212413BEV060120230000001
0000000005000515119119313TC1060120230000017
0000000005000515120120348RDH060120230000000
0000000001000121213213112XT5060120230000000
0000000004000414113113211ECR060120230000006
0000000004000414118118113STE060120230000035
0000000002000222212212248SAV060120230000000
0000000005000515111111113TXK060120230000002
0000000003000313113113213SCH060120230000083
0000000001000111112112413CXC060120230000001
0000000001000121211211248TR2060120230000014
0000000003000313115115148SAV060120230000001
0000000004000424213213348RTR060120230000005
0000000005000515117117248RCH060120230000015
0000000002000212113113148TR2060120230000002
0000000004000434311311412EST060120230000007
0000000005000515116116313TXK060120230000000
0000000002000212117117248RCH060120230000027
0000000004000414111111448YT1060120230000002
0000000002000222214214248RTC060120230000132
0000000002000212117117113CC2060120230000056
0000000005000515115115513S45060120230000000
0000000005000515117117111ECR060120230000002
0000000003000313115115312XT6060120230000008
0000000005000515115115513BZR060120230000005
0000000004000434312312312XT4060120230000018
0000000002000212111111411EC1060120230000004
0000000003000313112112113BEV060120230000008
0000000005000515114114113ST1060120230000008
0000000005000515116116448SAV060120230000000
0000000002000262621621311EGX060120230000001
0000000005000515119119448CXG060120230000001
0000000004000414118118213BEV060120230000001
0000000004000414113113213LCD060120230000000
0000000005000515113113312CT5060120230000005
0000000001000111115115413STE060120230000000
0000000003000323212212313TC1060120230000000
0000000004000424211211248CG2060120230000028
0000000001000111116116348YT1060120230000000
0000000004000414117117411EGX060120230000004
0000000004000414112112313T9B060120230000119
0000000001000111111111248RTR060120230000002
0000000002000212112112513STE060120230000000
0000000002000212116116313ST1060120230000020
0000000003000313117117148RDH060120230000003
0000000002000232312312412LYQ060120230000036
0000000005000525215215448RCH060120230000029
0000000002000212111111448RDH060120230000000
0000000002000222213213248RDH060120230000002
0000000003000313113113413LCD060120230000000
0000000003000313111111213CBC060120230000019
0000000005000535312312412EST060120230000004
0000000002000212115115213SDH060120230000003
0000000002000232312312212XT6060120230000070
0000000002000212118118513SDH060120230000000
0000000001000111115115312XT5060120230000000
0000000002000262621621348YT1060120230000002
0000000005000515113113313S45060120230000000
0000000002000222212212148YT1060120230000031
0000000001000111113113248CXG060120230000000
0000000003000313113113413ME2060120230000008
0000000005000515111111313ME2060120230000011
0000000002000222213213448CG2060120230000041
0000000002000212116116313T9B060120230000008
0000000005000525214214311EN2060120230000046
0000000004000424211211548RDH060120230000007
0000000005000515112112512CT5060120230000001
0000000003000313116116348YXT060120230000006
0000000002000212116116513BEV060120230000003
0000000004000414114114313TT1060120230000042
0000000005000515121121212CT5060120230000002
0000000002000222212212411ECR060120230000006
0000000005000515112112513S45060120230000000
0000000005000515120120148YXT060120230000002
0000000005000535311311112LYQ060120230000032
0000000005000515114114348RRH060120230000000
0000000005000515121121513CAC060120230000002
0000000002000212111111248RRH060120230000001
0000000003000323212212413LXD060120230000000
0000000004000434311311312ET1060120230000065
0000000003000313114114213CBC060120230000008
0000000002000212118118313TC1060120230000069
0000000004000414114114213BEV060120230000003
0000000002000212116116213ME2060120230000018
0000000001000111113113248RTR060120230000002
0000000003000313116116348RDH060120230000002
0000000005000515117117413EXP060120230000000
0000000001000111114114113S45060120230000000
0000000002000212119119513Y2X060120230000004
0000000001000111112112148CG2060120230000024
0000000005000515112112348CG2060120230000000
0000000003000323214214248RTR060120230000002
0000000003000313113113413STR060120230000000
0000000003000313113113213T9B060120230000030
0000000002000212114114313Y2X060120230000017
0000000004000424211211548YXT060120230000009
0000000004000414118118212XT5060120230000000
0000000004000424212212148CG2060120230000024
0000000003000363621621248RTE060120230000000
0000000003000313114114312LYQ060120230000002
0000000005000515111111113BZR060120230000050
0000000001000111112112212LYQ060120230000002
0000000003000313118118213STC060120230000147
0000000001000111116116411ECR060120230000000
0000000001000111112112113TXK060120230000000
0000000005000515116116148CG2060120230000000
0000000003000313113113411ECR060120230000000
0000000005000525211211248YT1060120230000022
0000000005000515116116613EXP060120230000000
0000000002000212119119212XT5060120230000002
0000000003000323211211113CXC060120230000000
0000000001000111113113248RRH060120230000002
0000000004000414118118348YT1060120230000006
0000000003000313113113113TC1060120230000022
0000000004000414115115312ET1060120230000000
0000000001000121212212411EN2060120230000008
0000000003000323211211448RRH060120230000002
0000000005000535311311212ET1060120230000011
0000000003000313111111348RCH060120230000001
0000000003000323212212212EST060120230000003
0000000005000515119119212EST060120230000000
0000000003000313113113348CXG060120230000000
0000000004000424212212548RTC060120230000047
0000000003000313114114413CC2060120230000047
0000000004000434311311212CT4060120230000006
0000000005000515118118313EXP060120230000001
0000000001000111114114513CBC060120230000029
0000000004000414113113113STE060120230000012
0000000005000515120120448TR2060120230000003
0000000002000212116116113CBC060120230000051
0000000003000313117117113CXC060120230000000
0000000003000313115115413TT1060120230000016
0000000002000262621621348RTE060120230000000
0000000004000434312312312XT6060120230000018
0000000005000525212212111EC1060120230000021
0000000001000111115115148RCH060120230000011
0000000002000212113113248CXG060120230000000
0000000004000414113113311EN2060120230000004
0000000001000111115115113CAC060120230000003
0000000005000525213213212XT5060120230000004
0000000003000313115115113CAC060120230000004
0000000003000323212212412CT4060120230000000
0000000005000515118118113LCD060120230000000
0000000001000111116116313Y2X060120230000004
0000000003000313113113311EGX060120230000041
0000000005000515111111148CG2060120230000003
0000000002000212112112513EXP060120230000000
0000000003000313113113412XT6060120230000001
0000000004000414118118213LCG060120230000000
0000000001000111115115311ECR060120230000003
0000000003000313114114448CG2060120230000007
0000000004000414111111148YXT060120230000001
0000000005000515112112312ET1060120230000002
0000000005000525213213348RTR060120230000006
0000000003000323211211448CXG060120230000000
0000000001000121211211411EC1060120230000008
0000000001000111111111313CBC060120230000012
0000000005000515113113248ACG060120230000036
0000000003000333311311312ET1060120230000022
0000000004000424213213412ET1060120230000001
0000000001000111111111111EGX060120230000000
0000000005000515119119448RRH060120230000000
0000000004000414113113213SRH060120230000001
0000000002000212118118448RTR060120230000001
0000000003000323211211511ECR060120230000001
0000000002000212111111613STC060120230000072
0000000001000111114114413SRH060120230000004
0000000001000111116116448TR2060120230000003
0000000005000525215215348YT1060120230000016
0000000004000414113113312ET1060120230000004
0000000003000313113113113TT1060120230000024
0000000002000232311311112EST060120230000013
0000000001000111114114413CXC060120230000000
0000000005000515116116348YXT060120230000001
0000000003000313117117113LXD060120230000000
0000000002000212115115412CT5060120230000003
0000000002000222214214148CXG060120230000000
0000000004000414112112313LCD060120230000000
0000000004000424213213412CT5060120230000000
0000000002000212112112513STC060120230000033
0000000002000212111111548TR2060120230000004
0000000005000515115115348CG2060120230000000
0000000005000525214214448SAV060120230000004
0000000001000121211211412XT4060120230000005
0000000003000313112112111ECR060120230000004
0000000004000414111111312LYQ060120230000003
0000000003000313115115348TR2060120230000006
0000000003000313116116111EC1060120230000002
0000000002000232312312312ET1060120230000019
0000000002000212116116413Y2X060120230000008
0000000002000212112112448CXG060120230000000
0000000002000212119119213BEV060120230000004
0000000005000525214214112CT4060120230000002
0000000003000313119119113SRH060120230000001
0000000004000464621621111EN2060120230000000
0000000005000515117117313STC060120230000122
0000000004000424213213248CG2060120230000024
0000000002000212114114212CT4060120230000001
0000000001000111114114213TBZ060120230000107
0000000003000313111111211EGX060120230000001
0000000003000313116116412XT5060120230000000
0000000003000313117117113LCG060120230000000
0000000002000212117117413ME2060120230000013
0000000002000212115115413BUV060120230000001
0000000004000414111111513LCG060120230000000
0000000005000515113113213SRH060120230000004
0000000002000212114114348YT1060120230000011
0000000002000212116116213TBZ060120230000051
0000000004000414115115313CAC060120230000000
0000000001000131311311312XT5060120230000050
0000000002000212119119413CBC060120230000000
0000000004000414111111113BEV060120230000003
0000000002000212117117513LCD060120230000000
0000000002000262621621448CXG060120230000000
0000000002000222214214348RCH060120230000075
0000000005000515121121413STE060120230000004
0000000005000525212212312XT5060120230000016
0000000002000222213213212EST060120230000002
0000000003000313112112413CBC060120230000016
0000000005000515120120213S45060120230000001
0000000004000414111111548RRH060120230000001
0000000005000525213213113LXD060120230000000
0000000002000212117117313TC1060120230000066
0000000001000111114114148RDH060120230000000
0000000005000515121121548SAV060120230000000
0000000004000424212212248TR2060120230000025
0000000003000323211211412CT4060120230000000
0000000004000414116116111ECR060120230000001
0000000003000313114114313TXK060120230000000
0000000004000424214214312XT5060120230000018
0000000005000525215215348RTE060120230000009
0000000004000414111111313SRH060120230000009
0000000005000515118118213LXD060120230000000
0000000001000111112112413LCG060120230000000
0000000004000414114114112CT5060120230000004
0000000002000212118118113BEV060120230000009
0000000005000515115115413LCD060120230000000
0000000003000323212212348RTE060120230000015
0000000004000414111111213BUV060120230000008
0000000004000424212212212CT4060120230000002
0000000005000515116116213CXC060120230000000
0000000001000121213213148ACG060120230000022
0000000004000414118118113ST1060120230000011
0000000003000313118118148TR2060120230000008
0000000001000111116116212LYQ060120230000004
0000000005000515116116613STE060120230000002
0000000002000212116116513ST1060120230000014
0000000003000323212212448RCH060120230000012
0000000005000515116116313BZR060120230000030
0000000003000323211211312ET1060120230000011
0000000001000111114114112ET1060120230000000
0000000001000121211211112LYQ060120230000000
0000000001000111114114113Y2X060120230000023
0000000002000212116116513LCG060120230000000
0000000002000212119119413SRH060120230000008
0000000005000515115115313TXK060120230000000
0000000001000121213213448CG2060120230000042
0000000004000414118118213BZR060120230000098
0000000005000515117117312CT5060120230000000
0000000004000414113113113BUV060120230000021
0000000004000414118118248RTR060120230000000
0000000005000525212212411EN2060120230000084
0000000002000212117117148TR2060120230000002
0000000001000121213213511ECR060120230000000
0000000001000121213213248CXG060120230000002
0000000005000535312312112ET1060120230000030
0000000003000313115115413BUV060120230000000
0000000005000515119119213LCG060120230000000
0000000005000525215215211ECR060120230000008
0000000001000111112112448RRH060120230000001
0000000003000313118118448RRH060120230000000
0000000003000333312312148YT1060120230000009
0000000005000515116116613SDH060120230000000
0000000001000111114114248ACG060120230000001
0000000003000313119119348RTC060120230000005
0000000001000111114114312CT5060120230000010
0000000001000111116116248SAV060120230000000
0000000003000313116116213EXP060120230000002
0000000003000323211211311EN2060120230000049
0000000003000313112112313STR060120230000001
0000000001000111113113448RRH060120230000000
0000000005000515116116548YT1060120230000002
0000000001000111116116348RTC060120230000005
0000000001000121211211348ACG060120230000041
0000000004000424212212448RDH060120230000010
0000000005000515114114413CBC060120230000004
0000000003000313119119313BUV060120230000000
0000000001000111113113113CBC060120230000007
0000000001000111114114213SCH060120230000066
0000000005000515119119413SCH060120230000014
0000000001000111111111413BZR060120230000002
0000000003000323211211548TR2060120230000013
0000000005000515116116113ME2060120230000036
0000000002000212116116548RTR060120230000001
0000000001000111113113313BUV060120230000130
0000000004000414111111213TBZ060120230000085
0000000003000313114114111ECR060120230000001
0000000005000515113113513CBC060120230000001
0000000005000525212212148RCH060120230000015
0000000004000414111111213TC1060120230000046
0000000003000313116116213T9B060120230000022
0000000002000212117117113BUV060120230000018
0000000001000111116116348CXG060120230000001
0000000002000212111111313EXP060120230000001
0000000005000515118118248RDH060120230000001
0000000005000515116116413EXP060120230000006
0000000005000515117117148YT1060120230000002
0000000001000111113113448RTR060120230000001
0000000004000414112112112XT6060120230000000
0000000003000313111111311EC1060120230000001
0000000002000212114114212XT6060120230000001
0000000002000222214214448YT1060120230000005
0000000005000515116116313S45060120230000004
0000000003000313115115313SRH060120230000001
0000000002000212118118313CAC060120230000003
0000000001000121212212448RDH060120230000003
0000000004000424214214412LYQ060120230000002
0000000003000313116116213S45060120230000000
0000000005000535312312212XT6060120230000009
0000000002000212115115413TBZ060120230000036
0000000003000313111111113Y2X060120230000083
0000000001000121213213148RTR060120230000001
0000000002000212112112313TBZ060120230000038
0000000003000313111111148RDH060120230000000
0000000001000131311311111EC1060120230000001
0000000004000414117117348RDH060120230000000
0000000003000313113113111EN2060120230000004
0000000004000414118118213ST1060120230000018
0000000002000212115115348RTR060120230000000
0000000004000414117117113TBZ060120230000090
0000000001000111116116112CT5060120230000004
0000000003000313118118213EQD060120230000030
0000000005000565621621448RDH060120230000000
0000000003000313113113348ACG060120230000029
0000000005000525211211112XT6060120230000011
0000000004000414118118348RTC060120230000012
0000000002000212115115213CBC060120230000017
0000000002000222211211348RDH060120230000011
0000000004000414113113213LXD060120230000001
0000000005000515116116511EC1060120230000006
0000000002000212112112413STC060120230000077
0000000003000313117117313STE060120230000008
0000000003000323212212348CG2060120230000019
0000000005000515113113513ST1060120230000009
0000000002000212114114413CBC060120230000005
0000000005000515120120348CG2060120230000000
0000000002000212112112113CAC060120230000004
0000000004000414114114413CBC060120230000006
0000000001000111113113213Y2X060120230000016
0000000003000323214214348RTC060120230000071
0000000002000212115115413ST1060120230000007
0000000005000515114114312XT5060120230000001
0000000005000515113113513TBZ060120230000040
0000000004000414114114213STC060120230000111
0000000003000313114114113STE060120230000006
0000000004000414112112113CC2060120230000025
0000000005000515118118148CXG060120230000002
0000000001000121212212448RRH060120230000002
0000000003000323212212313LXD060120230000000
0000000004000414111111348ACG060120230000005
0000000003000313114114413T9B060120230000026
0000000005000515117117448TR2060120230000001
0000000004000424213213148YXT060120230000041
0000000003000313117117248RTR060120230000000
0000000003000313112112113BZR060120230000026
0000000002000212116116113STE060120230000010
0000000002000212114114413SDH060120230000002
0000000001000111111111413LCG060120230000000
0000000004000414116116113BEV060120230000006
0000000002000212118118448YT1060120230000010
0000000001000111115115213ME2060120230000028
0000000003000313112112312EST060120230000001
0000000004000414111111511EC1060120230000000
0000000001000131312312311EC1060120230000001
0000000002000212116116148YT1060120230000003
0000000002000212116116448YXT060120230000004
0000000001000111116116113T9B060120230000011
0000000001000111113113413BEV060120230000012
0000000004000414113113412XT4060120230000007
0000000004000424212212148TR2060120230000076
0000000005000515118118113LXD060120230000000
0000000004000414115115112XT5060120230000001
0000000001000121213213548RRH060120230000001
0000000004000414118118348YXT060120230000000
0000000001000111111111411ECR060120230000000
0000000003000323211211412CT5060120230000003
0000000001000131312312248RCH060120230000006
0000000001000111113113148CXG060120230000000
0000000004000414111111113SCH060120230000054
0000000002000262621621348CXG060120230000000
0000000002000212118118548CG2060120230000004
0000000002000212117117313BZR060120230000027
0000000004000414113113213CC2060120230000043
0000000003000313111111112ET1060120230000020
0000000003000313113113113ME2060120230000001
0000000005000525213213312XT5060120230000002
0000000004000434312312412XT6060120230000024
0000000001000121213213412ET1060120230000003
0000000005000515116116513CBC060120230000004
0000000003000313114114413TXK060120230000002
0000000004000414116116313CC2060120230000038
0000000002000212114114413TXK060120230000000
0000000002000212116116348RTC060120230000033
0000000005000515118118348YT1060120230000000
0000000003000313117117113TXK060120230000000
0000000005000525211211411EGX060120230000073
0000000005000515117117213CAC060120230000008
0000000003000323212212313SRH060120230000000
0000000001000111113113148RTC060120230000006
0000000001000121211211348RTE060120230000028
0000000005000515115115148SAV060120230000000
0000000002000222214214448RTE060120230000019
0000000004000414111111448YXT060120230000002
0000000003000323212212113EQD060120230000002
0000000004000414117117148ACG060120230000005
0000000002000212111111613TT1060120230000011
0000000005000525214214111EGX060120230000043
0000000005000515112112248RTE060120230000001
0000000005000515120120313ME2060120230000000
0000000003000313117117113T9B060120230000043
0000000002000212118118413TT1060120230000047
0000000003000313115115313STR060120230000000
0000000003000323211211548CXG060120230000001
0000000002000212118118148RTR060120230000000
0000000002000212117117448RCH060120230000006
0000000005000525212212148CG2060120230000004
0000000005000515118118313TC1060120230000112
0000000001000111114114148RRH060120230000000
0000000001000111113113448CXG060120230000000
0000000003000313118118448RTR060120230000002
0000000005000515114114348TR2060120230000007
0000000005000515112112313SDH060120230000000
0000000001000121213213248RTE060120230000025
0000000002000212117117412CT5060120230000000
0000000001000121213213512EST060120230000002
0000000001000111114114313Y2X060120230000075
0000000002000212112112212LYQ060120230000000
0000000003000323212212112ET1060120230000005
0000000003000313119119313Y2X060120230000002
0000000004000434311311412XT6060120230000018
0000000003000323212212413STC060120230000002
0000000002000212113113113BUV060120230000003
0000000004000414118118313Y2X060120230000008
0000000001000121212212348TR2060120230000031
0000000002000212116116348RRH060120230000002
0000000003000333312312212EST060120230000016
0000000004000414114114212CT4060120230000004
0000000003000313113113148RDH060120230000000
0000000005000515112112213CBC060120230000007
0000000002000212111111513TT1060120230000008
0000000002000222213213212CT4060120230000001
0000000003000313113113248RRH060120230000001
0000000004000414114114411ECR060120230000001
0000000002000222211211111EC1060120230000032
0000000003000313116116413STE060120230000002
0000000003000333311311348YXT060120230000012
0000000004000414116116113LXD060120230000000
0000000003000363621621148YT1060120230000004
0000000003000313112112113ST1060120230000038
0000000005000515117117313TC1060120230000047
0000000002000212111111313STE060120230000001
0000000005000515112112113STR060120230000000
0000000004000414114114112EST060120230000002
0000000005000515113113313STC060120230000264
0000000002000212111111213ST1060120230000014
0000000002000212119119113SDH060120230000007
0000000002000212111111413LCG060120230000000
0000000005000515112112248CG2060120230000001
0000000001000111112112348ACG060120230000001
0000000005000515115115348RCH060120230000010
0000000005000515120120111EGX060120230000005
0000000002000212112112113ME2060120230000008
0000000003000313119119113SDH060120230000005
0000000005000515119119413Y2X060120230000004
0000000005000515114114112CT4060120230000002
0000000003000313118118148CG2060120230000001
0000000005000525213213113TT1060120230000002
0000000005000515119119448RDH060120230000000
0000000002000212117117213STC060120230000262
0000000005000515113113213STR060120230000000
0000000001000111113113411EN2060120230000003
0000000005000515113113511EC1060120230000002
0000000004000414111111212XT4060120230000005
0000000001000111116116211EN2060120230000004
0000000004000414117117213CBC060120230000003
0000000005000515114114448TR2060120230000001
0000000002000212118118248RRH060120230000000
0000000001000111116116413STR060120230000000
0000000002000222212212548RTC060120230000052
0000000005000535312312312XT4060120230000012
0000000005000515114114213BZR060120230000057
0000000002000212119119348SAV060120230000000
0000000003000313114114348ACG060120230000006
0000000003000313116116113STE060120230000007
0000000001000161621621148RDH060120230000000
0000000001000131311311348RTR060120230000002
0000000002000212113113213BUV060120230000000
0000000001000111115115313STE060120230000010
0000000004000424214214248RCH060120230000009
0000000001000111111111213STC060120230000089
0000000005000515115115311ECR060120230000000
0000000004000414112112248RCH060120230000008
0000000005000515114114413BUV060120230000006
0000000003000313119119248CXG060120230000000
0000000002000212113113213LCD060120230000000
0000000001000111114114548CG2060120230000016
0000000003000313115115213CAC060120230000010
0000000005000525211211348RTE060120230000021
0000000003000313117117113S45060120230000002
0000000005000515112112313CBC060120230000002
0000000003000313113113448TR2060120230000001
0000000003000313117117413SCH060120230000026
0000000005000515121121348RTR060120230000004
0000000002000232311311212CT4060120230000005
0000000001000111112112248ACG060120230000009
0000000005000515112112548RDH060120230000000
0000000005000515112112113SRH060120230000009
0000000004000414111111113T9B060120230000081
0000000004000424213213548RDH060120230000000
0000000001000111112112413CC2060120230000013
0000000004000424212212248RRH060120230000009
0000000004000424211211248RDH060120230000005
0000000003000333312312312CT4060120230000002
0000000005000515115115148ACG060120230000003
0000000001000111112112313SDH060120230000006
0000000005000515115115148RTC060120230000004
0000000005000515116116213CBC060120230000023
0000000001000111113113148CG2060120230000004
0000000004000424212212148RRH060120230000002
0000000001000111112112411ECR060120230000000
0000000002000212119119412XT4060120230000000
0000000005000515111111313LXD060120230000000
0000000002000212116116312EST060120230000004
0000000004000414111111313SDH060120230000010
0000000003000323212212413SCH060120230000001
0000000001000111116116112ET1060120230000005
0000000001000111114114348YXT060120230000010
0000000003000313114114148RRH060120230000006
0000000004000414113113248TR2060120230000002
0000000003000313113113113BZR060120230000007
0000000004000414118118213STE060120230000033
0000000005000525212212348YXT060120230000065
0000000001000111112112213SDH060120230000007
0000000001000111111111413T9B060120230000014
0000000001000121212212312XT5060120230000019
0000000001000131312312348RTR060120230000000
0000000005000515114114213LCG060120230000000
0000000001000111113113312CT4060120230000001
0000000001000111113113212XT6060120230000002
0000000005000515116116413Y2X060120230000020
0000000005000515113113548CG2060120230000000
0000000003000313119119213Y2X060120230000017
0000000005000525214214248CXG060120230000001
0000000001000111114114148YXT060120230000000
0000000005000565621621311ECR060120230000000
0000000002000212116116512EST060120230000001
0000000001000111115115313BUV060120230000033
0000000003000313112112448RTC060120230000027
0000000002000212118118513TXK060120230000000
0000000002000212112112248YXT060120230000002
0000000004000414113113448RTE060120230000001
0000000003000313114114448RDH060120230000002
0000000005000515114114413SCH060120230000053
0000000001000111116116113EXP060120230000002
0000000001000111113113213CC2060120230000060
0000000004000414115115248RTE060120230000010
0000000002000212115115413STE060120230000002
0000000005000515113113312CT4060120230000001
0000000002000212117117312CT5060120230000001
0000000002000222212212211EC1060120230000018
0000000002000212113113348RTC060120230000016
0000000004000414113113512XT6060120230000004
0000000003000313115115413CXC060120230000000
0000000002000212117117213ME2060120230000010
0000000002000222212212112LYQ060120230000002
0000000002000212111111412EST060120230000000
0000000002000222213213412LYQ060120230000000
0000000005000515115115348RDH060120230000000
0000000003000313116116113SDH060120230000008
0000000005000515115115113TC1060120230000039
0000000004000414117117213ME2060120230000008
0000000005000515116116213STR060120230000000
0000000005000515119119213CXC060120230000001
0000000004000414117117313S45060120230000001
0000000003000313113113413TC1060120230000071
0000000002000212112112213BEV060120230000004
0000000005000515120120413S45060120230000000
0000000003000313113113213EXP060120230000007
0000000005000525212212512EST060120230000002
0000000004000424213213211EGX060120230000060
0000000004000414111111448RTE060120230000008
0000000005000515113113513STE060120230000018
0000000005000515117117211EC1060120230000016
0000000005000515114114112XT6060120230000002
0000000003000313115115213STC060120230000247
0000000004000414116116213BEV060120230000004
0000000005000515120120211EGX060120230000008
0000000003000363621621113Y2X060120230000000
0000000003000313111111113BEV060120230000008
0000000002000212116116513TXK060120230000000
0000000005000515113113413STC060120230000231
0000000002000212117117313LCD060120230000000
0000000004000464621621148RRH060120230000000
0000000003000313117117211EN2060120230000014
0000000004000414112112448RTR060120230000002
0000000005000525212212248TR2060120230000141
0000000005000515111111312CT4060120230000001
0000000001000131312312211EC1060120230000001
0000000004000414117117113CBC060120230000000
0000000005000515116116113STC060120230000092
0000000002000212118118348YT1060120230000009
0000000005000515111111113SRH060120230000002
0000000005000515116116313SRH060120230000001
0000000002000212117117513TC1060120230000028
0000000002000212117117513STC060120230000124
0000000004000414113113113CXC060120230000000
0000000004000414115115248RRH060120230000001
0000000004000424212212448YXT060120230000039
0000000003000313112112113LCG060120230000005
0000000004000414115115113TBZ060120230000111
0000000005000515112112248ACG060120230000003
0000000003000323214214212CT4060120230000001
0000000001000111115115113SCH060120230000140
0000000003000313113113313SDH060120230000002
0000000002000222213213312LYQ060120230000000
0000000002000212113113448ACG060120230000007
0000000002000212113113348RTE060120230000002
0000000003000333311311212CT4060120230000031
0000000002000212114114248ACG060120230000012
0000000003000313115115113CXC060120230000000
0000000005000515114114148RTR060120230000000
0000000002000212114114212CT5060120230000002
0000000004000414111111112ET1060120230000000
0000000003000313112112348YXT060120230000004
0000000004000414118118311EN2060120230000002
0000000005000515113113448YT1060120230000002
0000000003000313111111213SDH060120230000006
0000000005000525213213248SAV060120230000000
0000000001000121213213512CT5060120230000000
0000000002000212111111613LXD060120230000000
0000000004000414113113513SDH060120230000001
0000000002000212113113313BUV060120230000005
0000000001000111115115313ST1060120230000033
0000000001000121211211112EST060120230000000
0000000005000515116116313STR060120230000000
0000000002000212114114213TC1060120230000015
0000000002000212111111113STE060120230000009
0000000001000111112112112EST060120230000000
0000000005000525211211148RTC060120230000093
0000000002000212116116548RCH060120230000035
0000000004000414118118148RCH060120230000007
0000000003000313114114348RDH060120230000000
0000000001000111116116113S45060120230000002
0000000005000515116116613EQD060120230000012
0000000001000111111111313STE060120230000005
0000000004000414112112413Y2X060120230000017
0000000002000212114114348ACG060120230000011
0000000002000222211211348YXT060120230000041
0000000004000414114114248TR2060120230000004
0000000002000222212212348RTR060120230000002
0000000001000131311311311EGX060120230000013
0000000005000515112112148CG2060120230000006
0000000001000111112112248RTE060120230000004
0000000002000212113113313TC1060120230000055
0000000004000414111111412ET1060120230000001
0000000001000111111111248YT1060120230000010
0000000003000313117117348RCH060120230000006
0000000004000414113113313STC060120230000095
0000000003000313114114213SCH060120230000049
0000000002000212113113211EGX060120230000007
0000000003000313111111113T9B060120230000096
0000000002000212113113412LYQ060120230000000
0000000003000313118118448YXT060120230000001
0000000003000323213213148SAV060120230000001
0000000003000313114114511EGX060120230000001
0000000004000414115115348RTE060120230000003
0000000001000111115115413BUV060120230000001
0000000002000232312312312LYQ060120230000004
0000000002000212119119313CXC060120230000000
0000000003000313116116213Y2X060120230000016
0000000003000323211211512CT5060120230000002
0000000004000414113113413SDH060120230000000
0000000005000515119119113SDH060120230000003
0000000005000515112112512CT4060120230000001
0000000003000323211211113CAC060120230000001
0000000002000212118118412CT4060120230000001
0000000004000424213213448YXT060120230000015
0000000002000212118118412ET1060120230000001
0000000002000212111111513LXD060120230000000
0000000005000525211211248RTC060120230000046
0000000002000212111111213STE060120230000009
0000000004000414117117313TXK060120230000000
0000000004000414113113512XT4060120230000006
0000000002000212115115213TXK060120230000000
0000000001000121212212212XT5060120230000007
0000000001000111112112113SDH060120230000004
0000000002000212114114213BUV060120230000000
0000000004000414111111411EC1060120230000001
0000000004000414113113513BEV060120230000007
0000000004000414116116212XT6060120230000001
0000000002000232312312312CT4060120230000008
0000000005000515120120248RCH060120230000028
0000000003000323211211512LYQ060120230000005
0000000005000515120120348YT1060120230000002
0000000002000212119119148RRH060120230000000
0000000004000414112112311EC1060120230000003
0000000001000131311311148RTC060120230000008
0000000005000515114114248RRH060120230000001
0000000003000313118118413SCH060120230000031
0000000003000323212212148RTC060120230000143
0000000005000515121121213ST1060120230000030
0000000003000333311311311EC1060120230000008
0000000002000212113113111EGX060120230000001
0000000001000121211211448RDH060120230000022
0000000001000111114114313TBZ060120230000079
0000000004000414113113213TBZ060120230000154
0000000002000212114114413Y2X060120230000010
0000000005000535312312112XT4060120230000040
0000000004000414112112248RTR060120230000001
0000000005000515112112448CG2060120230000000
0000000005000515111111413TC1060120230000065
0000000002000212112112511EC1060120230000005
0000000003000323212212413EXP060120230000000
0000000002000212112112112CT4060120230000000
0000000005000515112112448ACG060120230000001
0000000005000515116116148RTE060120230000001
0000000002000212115115448RTR060120230000000
0000000005000515111111213BZR060120230000027
0000000004000424212212148SAV060120230000005
0000000003000313112112248YT1060120230000002
0000000001000111111111312XT5060120230000002
0000000004000434311311212XT5060120230000020
0000000003000323213213448RTC060120230000134
0000000002000212117117513STE060120230000002
0000000002000212112112513CXC060120230000000
0000000003000313115115313TBZ060120230000045
0000000005000515116116448RDH060120230000001
0000000005000515120120113BUV060120230000008
0000000001000111111111413STE060120230000000
0000000002000212111111311ECR060120230000000
0000000005000515120120313S45060120230000000
0000000004000414112112413LCG060120230000000
0000000004000414116116413CBC060120230000006
0000000001000111115115448RTR060120230000000
0000000001000111114114113T9B060120230000006
0000000004000414117117413CXC060120230000000
0000000005000515112112312CT4060120230000002
0000000004000414117117413CAC060120230000001
0000000005000515115115213STE060120230000016
0000000003000323211211312CT4060120230000004
0000000003000313113113248RCH060120230000018
0000000003000333311311348RCH060120230000018
0000000002000212115115313TT1060120230000021
0000000002000222212212448YT1060120230000018
0000000005000515115115213BZR060120230000055
0000000005000515115115111ECR060120230000000
0000000004000414111111412XT5060120230000001
0000000003000333312312112CT4060120230000012
0000000002000212111111513STR060120230000000
0000000003000313115115313CBC060120230000012
0000000001000111113113413SDH060120230000006
0000000001000111112112111ECR060120230000000
0000000001000111115115113STE060120230000002
0000000005000515118118248SAV060120230000000
0000000004000414111111313S45060120230000005
0000000005000535312312312EST060120230000011
0000000003000313117117448ACG060120230000002
0000000005000515117117213EXP060120230000000
0000000005000525211211412XT5060120230000002
0000000005000515115115513EQD060120230000022
0000000004000414118118313LCG060120230000000
0000000004000424213213548RCH060120230000006
0000000002000222212212511ECR060120230000000
0000000003000313113113448CG2060120230000001
0000000002000212115115348YT1060120230000003
0000000001000121213213348RDH060120230000008
0000000003000333311311312XT6060120230000021
0000000002000212111111113BUV060120230000001
0000000001000111114114213S45060120230000010
0000000003000313116116113BEV060120230000003
0000000002000212116116211ECR060120230000001
0000000003000333312312212CT5060120230000015
0000000004000414113113348TR2060120230000006
0000000005000515113113313BZR060120230000197
0000000003000313117117448RRH060120230000000
0000000003000313111111313SDH060120230000003
0000000001000111113113513BZR060120230000004
0000000001000131312312248RTR060120230000002
0000000001000121212212412XT4060120230000006
0000000004000414115115113LXD060120230000000
0000000003000313118118313STR060120230000001
0000000002000232312312112LYQ060120230000066
0000000005000515121121513STC060120230000034
0000000001000121213213148YT1060120230000020
0000000004000414112112212XT6060120230000002
0000000002000212112112112XT6060120230000001
0000000005000515111111413ME2060120230000013
0000000002000212116116248TR2060120230000011
0000000001000161621621248RDH060120230000000
0000000002000212114114313T9B060120230000009
0000000005000515119119248YT1060120230000012
0000000005000515119119348RCH060120230000008
0000000002000222211211248RCH060120230000076
0000000004000424212212248CG2060120230000012
0000000005000515120120213LCD060120230000000
0000000003000323212212412XT5060120230000002
0000000004000414115115113EQD060120230000037
0000000003000313117117413TC1060120230000008
0000000005000515116116148TR2060120230000003
0000000001000111114114312EST060120230000007
0000000001000131311311348YT1060120230000005
0000000004000414118118311ECR060120230000001
0000000003000363621621248RTR060120230000001
0000000002000212119119212ET1060120230000002
0000000003000313114114513BUV060120230000000
0000000001000131311311348RCH060120230000015
0000000001000111116116248YXT060120230000002
0000000004000414111111548ACG060120230000007
0000000002000212113113311EC1060120230000003
0000000005000515118118212XT4060120230000000
0000000005000515117117313LCG060120230000000
0000000005000515119119113LCG060120230000001
0000000002000212114114313LCG060120230000001
0000000002000212119119313BEV060120230000002
0000000002000212117117213ST1060120230000020
0000000002000212118118348RCH060120230000026
0000000003000313113113213TXK060120230000000
0000000003000313112112148RTC060120230000016
0000000004000414116116112EST060120230000001
0000000004000414115115312XT6060120230000001
0000000005000525213213213LCD060120230000000
0000000001000111112112148RTE060120230000005
0000000001000111116116448CG2060120230000001
0000000001000111113113248CG2060120230000002
0000000005000525211211548ACG060120230000007
0000000002000232312312412ET1060120230000039
0000000002000212114114348CXG060120230000000
0000000003000323211211412XT5060120230000002
0000000003000313116116148RTE060120230000000
0000000001000111112112113T9B060120230000002
0000000001000111113113413STE060120230000004
0000000004000424214214348RCH060120230000052
0000000005000525211211148YT1060120230000032
0000000002000212119119448RDH060120230000001
0000000003000313114114213T9B060120230000022
0000000005000515121121313TXK060120230000000
0000000001000111111111448YT1060120230000009
0000000005000515111111348SAV060120230000000
0000000003000313116116313ST1060120230000008
0000000004000414117117313ME2060120230000008
0000000002000222213213148RTC060120230000408
0000000003000313118118213LCG060120230000001
0000000002000222212212448RTC060120230000189
0000000002000212111111113BZR060120230000028
0000000002000212115115313SDH060120230000002
0000000005000515112112413EXP060120230000044
0000000003000323211211348RDH060120230000005
0000000005000515119119148RTE060120230000003
0000000001000121213213348RCH060120230000055
0000000005000515117117448CXG060120230000000
0000000001000111115115413CAC060120230000000
0000000001000111113113412XT4060120230000004
0000000003000313111111313EXP060120230000014
0000000004000414111111448RRH060120230000001
0000000003000313119119313LCG060120230000000
0000000005000515115115513CAC060120230000003
0000000003000313113113112XT6060120230000001
0000000003000313111111313SCH060120230000074
0000000001000111115115111EGX060120230000003
0000000003000323212212113SRH060120230000000
0000000005000515121121513LXD060120230000000
0000000005000515111111113LCD060120230000000
0000000001000131312312248TR2060120230000002
0000000001000111112112113LCG060120230000002
0000000004000414117117112XT4060120230000001
0000000005000525213213211ECR060120230000008
0000000003000313112112311EN2060120230000006
0000000002000212114114113SDH060120230000000
0000000005000525212212111EGX060120230000036
0000000001000111111111113CXC060120230000000
0000000003000313117117248YT1060120230000008
0000000003000313113113213BZR060120230000037
0000000005000515119119348TR2060120230000003
0000000004000414111111448RTR060120230000002
0000000002000212119119513T9B060120230000001
0000000005000525211211548RCH060120230000006
0000000005000515120120413SRH060120230000001
0000000005000525214214448TR2060120230000021
0000000004000414115115248RTC060120230000017
0000000002000212116116148YXT060120230000005
0000000005000515121121113TT1060120230000056
0000000002000222212212348ACG060120230000050
0000000004000424214214111EC1060120230000022
0000000003000323211211348CXG060120230000000
0000000002000212118118348RTR060120230000000
0000000003000363621621113STE060120230000000
0000000002000212115115448SAV060120230000000
0000000002000212117117111EGX060120230000006
0000000001000111115115348YT1060120230000027
0000000005000525215215112LYQ060120230000003
0000000003000313115115213LCD060120230000000
0000000002000212113113113STC060120230000197
0000000001000121213213412XT4060120230000002
0000000003000313119119148YT1060120230000004
0000000005000515112112348RDH060120230000000
0000000002000212112112248RDH060120230000001
0000000005000515119119113CAC060120230000007
0000000002000212112112548RTR060120230000001
0000000005000515113113413CBC060120230000006
0000000004000414115115348CXG060120230000000
0000000004000414111111213STC060120230000150
0000000005000515117117248YT1060120230000007
0000000001000111116116112EST060120230000004
0000000001000111111111348RRH060120230000000
0000000002000212115115148RTC060120230000009
0000000002000212116116413SCH060120230000059
0000000005000525213213411EC1060120230000024
0000000005000515117117213TT1060120230000023
0000000004000414111111211ECR060120230000003
0000000004000424214214248RTR060120230000002
0000000003000323211211511EN2060120230000022
0000000005000515120120413STE060120230000003
0000000004000424212212211EC1060120230000015
0000000002000212111111113TT1060120230000012
0000000001000111114114213BUV060120230000066
0000000003000323212212313CC2060120230000001
0000000004000414114114413SRH060120230000002
0000000001000111111111213LCG060120230000000
0000000005000515111111148YT1060120230000000
0000000005000515118118211EC1060120230000006
0000000004000414118118248YT1060120230000000
0000000004000414111111348RTC060120230000008
0000000003000313117117413TT1060120230000008
0000000002000212118118313BEV060120230000004
0000000002000212111111113SRH060120230000001
0000000003000323212212113BZR060120230000002
0000000005000515111111213TXK060120230000000
0000000005000515119119213SDH060120230000000
0000000003000323214214213SDH060120230000000
0000000002000212111111313SRH060120230000000
0000000005000515115115213TBZ060120230000017
0000000003000323214214148SAV060120230000001
0000000005000525215215148RCH060120230000006
0000000005000525213213213LXD060120230000000
0000000002000212117117412XT5060120230000000
0000000003000313119119113EXP060120230000000
0000000004000434311311348CXG060120230000000
0000000001000131311311311EC1060120230000007
0000000003000323213213448CG2060120230000021
0000000002000212118118313BZR060120230000018
0000000005000515121121513BZR060120230000006
0000000004000414112112213STR060120230000002
0000000002000212117117413EQD060120230000040
0000000001000111114114113LCG060120230000000
0000000002000212115115113ST1060120230000020
0000000005000515119119413CC2060120230000014
0000000001000111114114513TC1060120230000153
0000000005000525212212148RTC060120230000050
0000000002000212111111113LXD060120230000000
0000000005000515116116348YT1060120230000000
0000000004000414115115213CAC060120230000005
0000000001000111114114513STR060120230000000
0000000003000313116116113TC1060120230000053
0000000002000212115115348RTE060120230000001
0000000004000414113113313LCD060120230000000
0000000002000212117117113TT1060120230000109
0000000002000222213213348RDH060120230000014
0000000005000525212212448ACG060120230000092
0000000001000111114114313LCG060120230000002
0000000003000313119119211EGX060120230000008
0000000004000414116116312LYQ060120230000012
0000000002000212117117212XT5060120230000002
0000000002000222214214312ET1060120230000000
0000000005000515118118213CXC060120230000000
0000000002000212111111512CT5060120230000000
0000000004000424213213148RTC060120230000105
0000000001000111115115213TXK060120230000000
0000000005000515120120212XT4060120230000002
0000000003000313112112213ME2060120230000024
0000000004000414116116313Y2X060120230000057
0000000002000222214214448RRH060120230000006
0000000004000414118118248RTE060120230000000
0000000001000121212212148ACG060120230000023
0000000003000313118118113EXP060120230000002
0000000002000212115115212CT4060120230000002
0000000005000515120120212CT5060120230000001
0000000004000414112112313TBZ060120230000109
0000000005000515111111413CXC060120230000000
0000000002000212116116413SDH060120230000002
0000000003000313114114348YT1060120230000005
0000000003000323213213348TR2060120230000011
0000000003000313112112411EC1060120230000005
0000000001000111116116448ACG060120230000005
0000000003000363621621113S45060120230000000
0000000003000313118118113TBZ060120230000047
0000000005000515116116512XT5060120230000003
0000000002000212115115113LXD060120230000000
0000000003000313111111311EGX060120230000006
0000000003000313114114411ECR060120230000003
0000000001000111116116313TXK060120230000000
0000000002000212118118413CC2060120230000040
0000000003000313116116211ECR060120230000000
0000000005000525213213412XT5060120230000003
0000000001000111116116248TR2060120230000003
0000000004000424214214348YT1060120230000034
0000000003000313117117448YXT060120230000000
0000000003000313116116312XT5060120230000000
0000000001000111113113413ST1060120230000016
0000000001000111114114513CXC060120230000000
0000000003000313117117348RTR060120230000002
0000000002000212113113111EC1060120230000001
0000000004000414115115248CG2060120230000004
0000000002000212114114113S45060120230000002
0000000001000111115115348RCH060120230000017
0000000003000333311311312XT4060120230000035
0000000004000414111111348YXT060120230000004
0000000003000323211211313TT1060120230000006
0000000002000212118118213SDH060120230000004
0000000005000515116116513LCD060120230000000
0000000003000323212212413TT1060120230000002
0000000003000313115115448SAV060120230000000
0000000002000212118118513Y2X060120230000002
0000000002000212113113113SDH060120230000004
0000000005000515117117112XT5060120230000002
0000000001000121213213248RTR060120230000005
0000000005000515121121513LCD060120230000000
0000000001000111116116313LCG060120230000000
0000000002000212114114211EC1060120230000009
0000000004000414117117213TXK060120230000000
0000000005000515118118313STR060120230000000
0000000003000323212212113LXD060120230000000
0000000002000212111111348TR2060120230000003
0000000002000212111111213CC2060120230000026
0000000001000131312312311EGX060120230000003
0000000002000212115115313ME2060120230000006
0000000003000323212212113LCD060120230000000
0000000002000212113113213CBC060120230000001
0000000002000212116116413ST1060120230000013
0000000003000313113113411EN2060120230000001
0000000004000414116116212XT4060120230000000
0000000002000212111111313S45060120230000001
0000000001000121213213448CXG060120230000000
0000000002000222211211448RDH060120230000000
0000000001000111113113212ET1060120230000005
0000000002000212111111648CG2060120230000002
0000000004000414112112213BUV060120230000023
0000000004000414111111413BEV060120230000007
0000000002000212115115113CBC060120230000019
0000000001000121213213311EC1060120230000010
0000000002000212115115313BUV060120230000001
0000000003000333311311412ET1060120230000007
0000000005000515117117411EC1060120230000001
0000000005000515111111112ET1060120230000003
0000000001000111112112248YXT060120230000013
0000000004000414117117448RDH060120230000000
0000000005000515117117213T9B060120230000035
0000000001000111116116313BUV060120230000000
0000000001000111114114248TR2060120230000001
0000000005000515120120448CXG060120230000000
0000000001000111114114213CXC060120230000000
0000000004000434311311348RTC060120230000003
0000000001000111112112313LCG060120230000001
0000000001000111113113548ACG060120230000004
0000000004000414117117413LCG060120230000000
0000000005000515114114312LYQ060120230000002
0000000002000212119119513SRH060120230000002
0000000005000515121121113EXP060120230000006
0000000005000515121121213STE060120230000009
0000000002000212117117113SCH060120230000135
0000000002000212117117313SRH060120230000000
0000000002000222213213312CT5060120230000001
0000000005000565621621148CG2060120230000000
0000000001000111111111213CBC060120230000001
0000000002000212117117113STC060120230000513
0000000002000212117117113TC1060120230000119
0000000001000121213213512LYQ060120230000002
0000000002000212114114113T9B060120230000008
0000000003000313117117213ME2060120230000011
0000000002000212115115248RDH060120230000000
0000000004000424211211448RRH060120230000010
0000000005000515113113513Y2X060120230000010
0000000004000414118118148RTR060120230000001
0000000003000313115115312LYQ060120230000010
0000000003000313115115113BUV060120230000004
0000000005000515116116513EXP060120230000000
0000000004000424214214212XT5060120230000002
0000000004000414113113411EN2060120230000006
0000000004000434312312212XT6060120230000010
0000000003000313116116113TT1060120230000050
0000000001000111115115113SRH060120230000007
0000000003000313115115313ME2060120230000011
0000000004000414117117148RDH060120230000000
0000000005000515117117248RRH060120230000001
0000000002000212111111648TR2060120230000006
0000000005000515120120313LXD060120230000000
0000000001000121211211348RTR060120230000006
0000000005000515111111113SCH060120230000028
0000000004000424212212548RCH060120230000019
0000000002000222214214212ET1060120230000003
0000000005000525215215248RCH060120230000067
0000000001000111111111411EN2060120230000001
0000000005000515114114213TBZ060120230000052
0000000005000515121121348SAV060120230000000
0000000004000414114114413TXK060120230000000
0000000002000212111111113CC2060120230000033
0000000004000414111111313LCD060120230000000
0000000003000313115115248CXG060120230000000
0000000002000212119119513CXC060120230000000
0000000003000313112112448CG2060120230000004
0000000005000525213213213STC060120230000003
0000000005000515111111413STR060120230000000
0000000002000212112112311EGX060120230000019
0000000004000414111111448CXG060120230000000
0000000005000515113113213TXK060120230000021
0000000005000515118118311EC1060120230000001
0000000005000525212212212ET1060120230000022
0000000001000121213213248SAV060120230000001
0000000001000111111111348ACG060120230000001
0000000004000424213213412LYQ060120230000000
0000000005000515115115413STC060120230000066
0000000005000525213213148TR2060120230000047
0000000005000515114114211EC1060120230000008
0000000002000212114114348RTE060120230000005
0000000005000515117117311EC1060120230000010
0000000003000313113113113STR060120230000000
0000000001000111113113513LXD060120230000000
0000000001000131311311348RTE060120230000006
0000000002000222211211111EGX060120230000054
0000000002000212119119213STC060120230000075
0000000003000313114114413SDH060120230000008
0000000002000222211211148YT1060120230000032
0000000001000121213213248CG2060120230000045
0000000002000212112112313BZR060120230000013
0000000002000212112112213CBC060120230000002
0000000001000111112112248CG2060120230000013
0000000002000212117117248RTR060120230000001
0000000004000414116116148CG2060120230000001
0000000003000313116116213TXK060120230000000
0000000005000515114114448RDH060120230000000
0000000004000414112112313SRH060120230000008
0000000005000515120120348YXT060120230000004
0000000005000515120120212CT4060120230000001
0000000003000313115115213LXD060120230000000
0000000004000414112112213S45060120230000002
0000000002000212115115213CXC060120230000000
0000000004000414111111213TT1060120230000030
0000000004000414114114313SRH060120230000005
0000000002000222214214248RCH060120230000052
0000000002000212111111513TBZ060120230000020
0000000005000515112112113SCH060120230000093
0000000002000212111111313BUV060120230000000
0000000002000212111111211EGX060120230000013
0000000003000323212212113ST1060120230000004
0000000005000515119119148YT1060120230000005
0000000001000111115115113LXD060120230000000
0000000001000121211211111EGX060120230000015
0000000003000313117117348RTE060120230000006
0000000004000434311311412CT5060120230000023
0000000004000414118118313BZR060120230000009
0000000004000414117117248RTE060120230000007
0000000005000515118118313S45060120230000001
0000000002000212112112513EQD060120230000012
0000000003000323212212113SCH060120230000010
0000000001000111116116213TXK060120230000000
0000000003000313116116448SAV060120230000000
0000000001000111116116113CBC060120230000006
0000000002000262621621248YXT060120230000000
0000000002000212111111512XT4060120230000000
0000000003000323211211412ET1060120230000003
0000000004000424214214448CXG060120230000000
0000000004000434312312412CT4060120230000009
0000000004000424212212111EC1060120230000053
0000000004000414113113512CT5060120230000005
0000000003000313114114113Y2X060120230000006
0000000003000323211211148RTE060120230000022
0000000001000161621621248RRH060120230000000
0000000003000313114114113S45060120230000001
0000000001000111114114512XT6060120230000007
0000000002000212118118113TBZ060120230000062
0000000005000515120120413ST1060120230000009
0000000002000222213213448RDH060120230000011
0000000002000212119119348YXT060120230000003
0000000001000111114114313T9B060120230000003
0000000004000424214214348RTR060120230000006
0000000005000515116116513TC1060120230000054
0000000002000212112112413EQD060120230000016
0000000005000515117117212EST060120230000002
0000000004000414112112312XT4060120230000000
0000000003000313113113412XT4060120230000001
0000000001000111112112448YT1060120230000009
0000000003000323214214112LYQ060120230000003
0000000002000212118118113CXC060120230000000
0000000005000515117117312XT5060120230000001
0000000003000313115115113S45060120230000000
0000000005000515121121213CBC060120230000004
0000000005000515119119448SAV060120230000000
0000000005000515114114213Y2X060120230000004
0000000001000111113113213ST1060120230000022
0000000004000414113113448RTR060120230000000
0000000001000111113113248RCH060120230000008
0000000003000323213213448CXG060120230000002
0000000002000212112112211ECR060120230000002
0000000001000111114114213T9B060120230000002
0000000003000313117117248RTE060120230000007
0000000003000323214214213TXK060120230000000
0000000002000212112112513CAC060120230000000
0000000001000111113113113SRH060120230000001
0000000002000232312312412CT5060120230000016
0000000003000313114114248CXG060120230000000
0000000003000313114114248SAV060120230000000
0000000003000333311311248SAV060120230000002
0000000005000515119119113T9B060120230000054
0000000001000111113113213TXK060120230000000
0000000002000212111111512XT6060120230000000
0000000004000414111111448CG2060120230000003
0000000004000414111111348CXG060120230000001
0000000004000424211211248YXT060120230000022
0000000005000525214214112XT4060120230000008
0000000004000414115115248RCH060120230000007
0000000001000111113113213TBZ060120230000035
0000000002000212118118413CXC060120230000000
0000000001000121213213111EC1060120230000013
0000000002000212111111512CT4060120230000000
0000000002000212118118548ACG060120230000006
0000000002000212118118413TBZ060120230000068
0000000002000212111111113LCD060120230000000
0000000005000515113113113LXD060120230000000
0000000003000313112112148RCH060120230000009
0000000005000515116116413TC1060120230000070
0000000004000414116116213LCD060120230000000
0000000003000313118118248TR2060120230000017
0000000004000414114114413LCD060120230000000
0000000004000414117117213SRH060120230000002
0000000002000232312312312XT5060120230000013
0000000005000515121121113SCH060120230000111
0000000002000212113113113EXP060120230000004
0000000004000414118118348RTE060120230000002
0000000002000212118118511ECR060120230000001
0000000004000414111111348RTR060120230000002
0000000005000515116116213EQD060120230000056
0000000002000212117117148SAV060120230000000
0000000005000565621621448SAV060120230000001
0000000005000515121121413TXK060120230000000
0000000004000414113113313SRH060120230000008
0000000003000313115115313Y2X060120230000017
0000000002000222212212448RCH060120230000071
0000000003000313111111112LYQ060120230000008
0000000001000111113113548RTE060120230000001
0000000005000525212212312ET1060120230000009
0000000003000313114114148SAV060120230000001
0000000005000515113113113S45060120230000001
0000000002000212111111213TT1060120230000019
0000000003000323213213348CXG060120230000001
0000000004000424211211148RTE060120230000078
0000000002000212119119213CBC060120230000004
0000000005000515119119313STR060120230000000
0000000001000111115115213CC2060120230000108
0000000005000515116116613STC060120230000032
0000000001000111111111248ACG060120230000007
0000000001000111114114113TBZ060120230000044
0000000004000414112112213T9B060120230000055
0000000005000515118118113ME2060120230000007
0000000003000313116116411EGX060120230000003
0000000002000212119119413T9B060120230000012
0000000002000212119119513LCG060120230000000
0000000003000313113113348RTR060120230000004
0000000005000515120120213LXD060120230000000
0000000003000333311311348CG2060120230000007
0000000005000515120120248CXG060120230000001
0000000003000313118118213TC1060120230000049
0000000004000414114114413TT1060120230000023
0000000005000515118118213ME2060120230000003
0000000002000212119119213STE060120230000002
0000000003000313116116148YT1060120230000002
0000000001000111113113413CAC060120230000000
0000000002000212118118312CT5060120230000001
0000000002000212112112248ACG060120230000010
0000000005000515117117113TT1060120230000024
0000000002000212114114313BZR060120230000019
0000000002000212111111113S45060120230000002
0000000005000515113113213S45060120230000003
0000000003000313119119348RTE060120230000000
0000000001000111114114548RRH060120230000001
0000000003000313115115113LXD060120230000000
0000000003000323211211113LCD060120230000000
0000000002000212111111213BZR060120230000021
0000000004000414114114313LCD060120230000000
0000000002000222211211348ACG060120230000107
0000000002000222212212448RTR060120230000004
0000000001000111115115413LXD060120230000000
0000000003000313112112413TBZ060120230000048
0000000005000515117117413EQD060120230000020
0000000005000535311311312ET1060120230000073
0000000004000424213213448SAV060120230000009
0000000002000212119119313TC1060120230000012
0000000003000313119119113S45060120230000000
0000000005000515112112111EN2060120230000012
0000000005000515116116513BUV060120230000006
0000000001000131311311148ACG060120230000002
0000000005000515121121413EXP060120230000000
0000000001000111113113513CC2060120230000013
0000000003000313116116448CXG060120230000000
0000000003000333312312112CT5060120230000038
0000000003000313118118413STE060120230000001
0000000005000515120120213SRH060120230000002
0000000005000515114114448CXG060120230000000
0000000002000212111111213EXP060120230000003
0000000005000515115115413BEV060120230000004
0000000001000121211211448CXG060120230000001
0000000003000313113113211ECR060120230000001
0000000002000212113113313TXK060120230000002
0000000003000313116116348SAV060120230000000
0000000001000111112112348YT1060120230000002
0000000005000525213213113TC1060120230000002
0000000005000515121121148RRH060120230000001
0000000004000414116116113TBZ060120230000063
0000000002000212113113448YXT060120230000002
0000000004000434311311212EST060120230000018
0000000005000515112112112ET1060120230000000
0000000004000414113113113S45060120230000000
0000000005000515118118148SAV060120230000000
0000000002000212112112412XT5060120230000002
0000000004000414116116148RRH060120230000000
0000000005000515112112512XT4060120230000001
0000000003000323214214348SAV060120230000000
0000000002000222214214348RTC060120230000210
0000000002000222212212212CT4060120230000000
0000000001000111112112148YT1060120230000014
0000000004000414116116412EST060120230000000
0000000005000515116116113T9B060120230000059
0000000001000111114114212XT6060120230000003
0000000001000111111111211ECR060120230000000
0000000002000212119119248YXT060120230000000
0000000004000414112112413ME2060120230000000
0000000005000515121121513SRH060120230000001
0000000005000515113113448RTC060120230000015
0000000004000414117117313CXC060120230000000
0000000004000414112112213LXD060120230000000
0000000004000414112112212XT4060120230000003
0000000005000515116116413SCH060120230000033
0000000004000414116116213BZR060120230000018
0000000005000515111111313CBC060120230000009
0000000002000212113113313EXP060120230000000
0000000005000515118118113CC2060120230000030
0000000005000515118118313CC2060120230000014
0000000005000515119119413TXK060120230000000
0000000003000313116116213BUV060120230000008
0000000005000515115115213LXD060120230000000
0000000002000212113113313CBC060120230000012
0000000002000212111111612XT6060120230000002
0000000005000515113113312EST060120230000006
0000000005000515118118213CAC060120230000001
0000000004000414113113448YT1060120230000006
0000000004000424214214148SAV060120230000001
0000000004000414116116348YXT060120230000004
0000000004000414115115348RTR060120230000000
0000000001000111111111313T9B060120230000027
0000000005000515113113311ECR060120230000001
0000000004000414113113513SCH060120230000025
0000000002000212112112148TR2060120230000005
0000000005000515119119213T9B060120230000017
0000000001000111113113213STE060120230000008
0000000001000111114114113BEV060120230000015
0000000005000515112112213Y2X060120230000006
0000000005000515117117413CAC060120230000002
0000000005000515121121513S45060120230000000
0000000005000515111111313STR060120230000000
0000000003000313113113348YT1060120230000019
0000000002000212112112213BZR060120230000011
0000000005000515114114248SAV060120230000000
0000000002000212117117513EXP060120230000000
0000000005000515115115448ACG060120230000013
0000000003000323211211312XT5060120230000006
0000000002000212112112112CT5060120230000002
0000000002000212117117413BEV060120230000001
0000000004000414115115248RTR060120230000000
0000000001000121212212212ET1060120230000013
0000000002000212118118513TC1060120230000014
0000000004000414114114413BEV060120230000005
0000000003000313112112148RTR060120230000001
0000000002000212114114448YXT060120230000006
0000000001000111116116148CG2060120230000012
0000000002000212119119112CT5060120230000002
0000000003000333312312412XT6060120230000005
0000000003000313117117413Y2X060120230000002
0000000003000323211211113Y2X060120230000009
0000000003000313117117211ECR060120230000008
0000000002000212112112213LCD060120230000000
0000000002000222212212348RTE060120230000021
0000000005000515111111111EC1060120230000006
0000000005000515111111213CBC060120230000005
0000000001000131312312248RTE060120230000003
0000000003000313115115413EQD060120230000037
0000000005000515114114413SRH060120230000002
0000000003000313117117213SDH060120230000003
0000000001000111112112248RTR060120230000002
0000000002000212114114113TXK060120230000000
0000000005000515111111313BZR060120230000033
0000000005000515119119112ET1060120230000001
0000000005000515114114348SAV060120230000000
0000000002000222213213448RRH060120230000006
0000000005000515117117113BZR060120230000031
0000000003000363621621113ST1060120230000000
0000000002000212117117213BEV060120230000007
0000000002000212119119211EC1060120230000003
0000000002000212116116213CAC060120230000002
0000000003000313111111348YT1060120230000002
0000000005000515120120413LCD060120230000000
0000000002000212111111413SDH060120230000000
0000000002000222212212211EN2060120230000023
0000000005000515112112213TXK060120230000000
0000000004000414113113248CXG060120230000000
0000000004000414118118313SDH060120230000003
0000000002000222212212548YT1060120230000013
0000000004000414114114213T9B060120230000047
0000000001000111112112413T9B060120230000005
0000000005000515115115213SRH060120230000002
0000000004000414113113113EXP060120230000012
0000000005000515115115348YXT060120230000002
0000000003000313114114348YXT060120230000006
0000000005000515121121213EQD060120230000120
0000000003000323212212248RDH060120230000005
0000000005000515113113513EXP060120230000001
0000000002000212111111313BZR060120230000003
0000000003000323213213111EN2060120230000027
0000000004000424213213348SAV060120230000001
0000000004000434311311112XT5060120230000015
0000000003000313116116113LCD060120230000000
0000000004000414111111348YT1060120230000002
0000000002000222213213448ACG060120230000073
0000000002000212112112313LCD060120230000000
0000000004000414114114313BEV060120230000002
0000000005000515117117111EGX060120230000010
0000000004000414112112113STC060120230000120
0000000004000414112112113TC1060120230000031
0000000002000212118118548RTE060120230000002
0000000003000313116116213LCG060120230000000
0000000005000515115115513SRH060120230000002
0000000002000212119119148RTR060120230000001
0000000001000111112112313T9B060120230000004
0000000005000565621621348YT1060120230000000
0000000001000111113113113EXP060120230000007
0000000002000212115115311ECR060120230000000
0000000003000313115115312XT4060120230000009
0000000004000424214214412ET1060120230000001
0000000002000212119119313STC060120230000042
0000000002000212111111313LCD060120230000000
0000000003000323213213211EN2060120230000026
0000000002000212113113212XT4060120230000001
0000000003000323214214212ET1060120230000003
0000000003000313114114313LCG060120230000000
0000000005000515117117413ME2060120230000000
0000000005000515116116611EC1060120230000004
0000000004000414112112448RTE060120230000001
0000000001000111111111112ET1060120230000001
0000000002000212119119148CXG060120230000000
0000000005000515115115312CT4060120230000000
0000000004000414113113113TT1060120230000041
0000000005000515121121313EQD060120230000031
0000000003000313116116213BZR060120230000008
0000000001000111111111212XT5060120230000000
0000000003000363621621148RTC060120230000009
0000000003000313116116348ACG060120230000004
0000000005000525215215148RDH060120230000000
0000000003000333312312148RDH060120230000000
0000000003000313115115313EQD060120230000053
0000000001000131312312348RTE060120230000002
0000000002000212118118248ACG060120230000003
0000000002000212116116513EXP060120230000000
0000000001000111111111413STC060120230000026
0000000004000414112112213SRH060120230000011
0000000005000525215215411EGX060120230000015
0000000005000515112112513EQD060120230000031
